:020000040800F2
:10000000F8040020010100089714000801140008FA
:1000100095140008BD070008F9360008000000002C
:10002000000000000000000000000000891A000825
:100030008508000800000000E1150008351B0008D5
:100040001B0100081B0100081B0100081B01000820
:100050001B0100081B01000889080008510900085D
:100060001B0100081B0100081B0100081B01000800
:100070001B0100081B0100081B0100081B010008F0
:100080001B0100081B0100081B0100081B010008E0
:100090001B0100081B0100081B0100081B010008D0
:1000A0001B0100081B0100081B0100081B010008C0
:1000B000891B0008A11B00081B0100081B01000888
:1000C0001B0100081B0100081B0100081B010008A0
:1000D0001B010008A52D00080D2E0008C92E0008E0
:1000E0001B0100081B0100081B010008DFF80CD0F1
:1000F00000F052FB00480047C13D0008F804002012
:100100000648804706480047FEE7FEE7FEE7FEE7B1
:10011000FEE7FEE7FEE7FEE7FEE7FEE7391B000825
:10012000ED000008D2B201E000F8012B491EFBD21D
:1001300070470022F6E710B513460A4604461946F2
:10014000FFF7F0FF204610BDF0B480EA0102D40FA3
:100150004200B2EB410F02D20246084611464A0065
:1001600042D0C30DDDB2C1F3C752AD1A202D35DA2E
:10017000C1F3160141F4000204B15242C5F1200658
:1001800002FA06F12A411044B3EBD05F23D0C4B188
:10019000012DA0EBC35009DCF0BC4FF0004202EA95
:1001A000C352DBB200F5000000F06ABA400000F173
:1001B000807000EBC350A0F1807040EAD17049001C
:1001C00009E0490841EAC071A0EBC35000F5000006
:1001D000400800EBC350F0BC00F049BA6142012274
:1001E00002EB4101001BF6E7F0BC704781F00041D3
:1001F000AAE780F00040A7E7420005D0C0F3C7524D
:100200005242914201DC0020704700EBC150704720
:100210002DE9FE4F804681EA0300C00F0C46009096
:1002200021F0004123F00045B8EB0200A94105D2BE
:100230004046214690461C460B46024623F00040AD
:10024000104347D0270DC7F30A00C3F30A510290A9
:10025000401A019040286BDAC3F3130040F4801B6E
:100260000098924620B10023D2EB030A63EB0B0BFC
:1002700001985946C0F14002504600F0C7F90646C1
:100280000D4650465946019A00F0DFF910EB080080
:100290006141002487EA115284EAE7731A4340D08F
:1002A000009A62B3019A012A4FEA075215DC001B3B
:1002B00061EB02014FF0004202EA0752CDE9004231
:1002C000001C41F5801132462B4600F016FA03B0AF
:1002D000BDE8F08F40462146F9E7001B61EB0201C3
:1002E000001C41F5801300185B412018A2F500178F
:1002F00047EB030140EAD570B6196D4111E06D0876
:100300004FEA360645EAC0754FEA0752001B61EB1B
:100310000201001C41F5801149084FEA3000001924
:10032000514132462B4603B0BDE8F04F00F0D6B93C
:100330000098012240000023D0EB020263EBE0733F
:10034000009821464FEAE074B8EB000061EB04012D
:10035000E9E783F000435BE781F0004158E72DE9CE
:10036000FE4F81EA030404F0004421F000410094B0
:100370004FF0000B23F0004350EA01045ED052EA34
:1003800003045BD0C3F30A54C1F30A552C44A4F20E
:10039000F3340194A0FB0254C1F3130141F4801122
:1003A000C3F3130343F4801301FB024400FB034E29
:1003B000840A970A44EA815447EA8357A4FB0768F2
:1003C00002958D0A05FB07854FEA932C04FB0C541C
:1003D0002705029D4FEA065847EA1637B5EB080590
:1003E0006EEB070C870E920E47EA811742EA8312E2
:1003F000A7FB0201B6EB0B0164EB00042B0D43EAF3
:100400000C335E1844EB1C50DA465146E7FB020100
:10041000C5F313044FEA0B3343EA14534FEA043293
:10042000019C43EA0603A4F10C040294009CCDE96C
:1004300000B400F062F903B0BDE8F08F002001467F
:10044000F9E72DE9F04D81EA030404F0004B21F0B7
:10045000004514464FF0000A23F0004150EA05021F
:1004600020D054EA01021DD0C5F30A570246C5F355
:100470001303C1F31300C1F30A5640F4801543F48B
:100480008013A7EB0608101BD64608F2FD3873EB65
:10049000050002D308F1010801E092185B41B8F1B0
:1004A000000F03DA00200146BDE8F08D00204FF474
:1004B0008011064684460EE0171B73EB050705D333
:1004C000121B63EB050306434CEA010C49084FEA93
:1004D000300092185B4150EA0107EDD152EA030067
:1004E00012D082EA040083EA0501084305D0101BFC
:1004F000AB4106D20122002306E000224FF0004368
:1005000002E06FF0010253101AEB06004CEB0851A9
:1005100010EB0A0041EB0B01BDE8F04D00F0DEB836
:10052000C10F80EAE0700844CA079623002100F05A
:10053000A7B80EB5C10F80EAE0700844CA070021D1
:1005400040F233438DE80E000A460B4600F0D5F822
:1005500003B000BD70B5C1F30A5201F0004500249C
:10056000C1F3130140F2FF3341F480119A4201DAE2
:10057000002070BD40F233439A42A2F2334203DCC2
:10058000524200F052F800E090402C43F1D040423B
:1005900070BD00F0004230F000400AD0C10D01F5FE
:1005A0006071C0F3160042EA0151C20840071143CE
:1005B0007047002001467047002801DBC0F1004071
:1005C000002901DBC1F1004181427047002801DBB5
:1005D000C0F10040002901DBC1F1004188427047B1
:1005E00030B50B46014600202022012409E021FA03
:1005F00002F59D4205D303FA02F5491B04FA02F500
:100600002844151EA2F10102F1DC30BD202A04DBD2
:10061000203A00FA02F1002070479140C2F1200315
:1006200020FA03F3194390407047202A04DB203A54
:1006300021FA02F00021704721FA02F3D040C2F102
:1006400020029140084319467047202A06DBCB1749
:10065000203A41FA02F043EAE07306E041FA02F37D
:10066000D040C2F12002914008431946704700294A
:10067000A8BF7047401C490008BF20F00100704728
:1006800010B4B0FA80FC00FA0CF050EA010404BF88
:1006900010BC704749B1CCF1200421FA04F411FADE
:1006A0000CF118BF012121430843A3EB0C01CB1D22
:1006B0004FEA00614FEA102042BF002010BC704793
:1006C00000EBC35010440029A4BF10BC7047401C6D
:1006D000490008BF20F0010010BC704710B5141E7F
:1006E00073F1000408DA401C41F1000192185B41EB
:1006F0001A4301D120F0010010BD2DE9F04D9246C2
:100700009B4611B1B1FA81F202E0B0FA80F22032D8
:100710009046FFF77BFF04460F4640EA0A0041EA95
:100720000B0153465A46084313D0114653EA0100C1
:1007300019D0C8F140025046FFF777FF05460E4634
:10074000504659464246FFF761FF084305D0012055
:1007500004E020463946BDE8F08D0020054346EA16
:10076000E0762C4337430A986305E40AA0EB0800BF
:100770000022FD0A44EA47540A3002D5002001460F
:10078000E9E7010510196941DDE9084500196941EA
:10079000BDE8F04DA2E70000064C074D06E0E0681A
:1007A00040F0010394E8070098471034AC42F6D3B8
:1007B000FFF7A0FCE846000808470008FEE710B570
:1007C00028220221012003F0D5FC00220121BDE8EE
:1007D0001040022003F0CEBC10B5012100220846D3
:1007E00003F0C8FC28220221BDE81040084603F0AF
:1007F000C1BC10B528220221012003F0BBFC00225D
:100800000221BDE81040084603F0B4BC10B5282210
:100810000221012003F0AEFC28220121BDE8104096
:10082000022003F0A7BC10B501212822084603F0DE
:10083000A1FC28220221BDE81040084603F09ABC22
:1008400010B500F0DFFD00F09FFE03F027F940F245
:10085000CF2140F2E73003F0B7FCBDE8104003F0D1
:10086000A3BC10B500F0F2FD00F0A4FE03F035F9D2
:1008700040F2CF2140F2E73003F0A6FCBDE8104083
:1008800003F092BC704700002DE9F041012000F018
:10089000DDF800284DD0012000F0BEF801212648E7
:1008A00000F092FC254C4FF080420128606137D067
:1008B000606A9046401C6062104601F075FB00EBD8
:1008C00080004100206940F27122504301EB001585
:1008D000A560E069FFF75DFE4FF06632184BFFF749
:1008E000B0FD0022174BFFF793FC06460F46284643
:1008F000FFF71FFE4FF03332134BFFF730FD324648
:100900003B46FFF72CFD0022104BFFF79AFDFFF747
:1009100021FE206000214046BDE8F04101F0CEBA42
:10092000206A401C0021216120629184012110462F
:10093000F2E7BDE8F081000000080140AC000020B3
:10094000661271400000F03F33B7744000409F4092
:100950002DE9F041022000F079F800284DD0022066
:1009600000F05AF80221264800F02EFC254C4FF0EA
:1009700080420128A06137D0606A9046401C6062C6
:10098000104601F011FB00EB80004100206940F2AD
:100990007122504301EB0015E560E069FFF7F9FDB6
:1009A0004FF06632184BFFF74CFD0022174BFFF754
:1009B0002FFC06460F462846FFF7BBFD4FF03332AB
:1009C000134BFFF7CCFC32463B46FFF7C8FC002236
:1009D000104BFFF736FDFFF7BDFD6060002140467C
:1009E000BDE8F04101F06ABA206A401C0021216193
:1009F0002062918401211046F2E7BDE8F0810000F9
:100A000000080140AC000020661271400000F03F79
:100A100033B7744000409F4010B50446000D00D12C
:100A20001CB9FC2102A002F08FFF0748046010BD32
:100A30007372635C73746D3332663130785F6578DE
:100A400074692E63000000001404014070B5002595
:100A50000446012835D0022C33D0042C31D0082C88
:100A60002FD0102C2DD0202C2BD0402C29D0802CF6
:100A700027D0B4F5807F24D0B4F5007F21D0B4F521
:100A8000806F1ED0B4F5006F1BD0B4F5805F18D016
:100A9000B4F5005F15D0B4F5804F12D0B4F5004F17
:100AA0000FD0B4F5803F0CD0B4F5003F09D0B4F5B9
:100AB000802F06D0B4F5002F03D0E52107A002F067
:100AC00043FF0C4800680B4920401431096821425B
:100AD00001D000B10125284670BD00007372635C2F
:100AE00073746D3332663130785F657874692E6364
:100AF000000000000004014070B50446007928B1F0
:100B0000042803D06A2129A002F01EFF607908287A
:100B100007D00C2805D0102803D06B2123A002F0A9
:100B200013FF2068010D00D118B96C211FA002F03D
:100B30000BFFA07928B1012803D06D211BA002F082
:100B400003FF2049A07958B30868226890430860E1
:100B5000081D026823689A430260207908440268ED
:100B600023681A430260174B0833186822689043C1
:100B700018601A1D10682568A84310606079102855
:100B800005D00844016822681143016070BD1868EF
:100B9000216808431860106821680843106070BD20
:100BA00020790844016822689143EEE77372635C20
:100BB00073746D3332663130785F657874692E6393
:100BC0000000000000040140F0B587B00646142183
:100BD0006846FFF7AEFA0921144803F045FD144DAD
:100BE00000244FF4FA772888000404D505A9684644
:100BF00003F012FD06E0641CE4B2384602F046FF42
:100C0000322CF0D3002028809DF81400132802D045
:100C1000002007B0F0BD002168464218927A725455
:100C2000491CC9B20829F8D30120F2E75B00002073
:100C3000A400002070B586B0054614216846FFF771
:100C400078FA0921134803F027FD134E0024308859
:100C5000000404D505A9684603F0F2FC06E0641C14
:100C6000E4B20A2002F007FF322CF0D300203080DB
:100C70009DF81400132802D0002006B070BD00219A
:100C800068464218927A6A54491CC9B20829F8D3B6
:100C90000120F2E75B000020A4000020F8B502204C
:100CA000ADF8000048208DF803002B4E03248DF88A
:100CB00002406946304600F0EFF80425ADF80050D8
:100CC0008DF803508DF802406946304600F0E4F894
:100CD0000820ADF800008DF803508DF802406946F9
:100CE000304600F0D9F81020ADF800008DF8035020
:100CF0008DF802406946304600F0CEF82020ADF86D
:100D000000008DF803508DF802406946304600F02F
:100D1000C3F84020ADF800008DF803508DF8024074
:100D20006946304600F0B8F88020ADF800008DF834
:100D300003508DF802406946304600F0ADF8A80136
:100D4000ADF800008DF803508DF80240694630463A
:100D500000F0A2F8F8BD000000200140F8B54FF403
:100D60007070ADF8000018251D4E8DF80350032457
:100D70008DF802406946304600F08EF83015ADF827
:100D800000008DF803508DF802406946304600F0AF
:100D900083F8F014ADF8000004258DF803508DF8A9
:100DA00002406946304600F077F84FF4E050ADF865
:100DB00000008DF803500B4D8DF80240694628461F
:100DC00000F06AF841F20101ADF8001048208DF8FA
:100DD00003008DF802406946284600F05DF8F8BD32
:100DE000000C01400020014070B50C46050010D0F9
:100DF000012D0ED0022D0CD0032D0AD0042D08D0C9
:100E0000052D06D0062D04D040F265211BA002F06E
:100E10009BFD14B3012C20D0022C1ED0032C1CD01F
:100E2000042C1AD0052C18D0062C16D0072C14D060
:100E3000082C12D0092C10D00A2C0ED00B2C0CD060
:100E40000C2C0AD00D2C08D00E2C06D00F2C04D060
:100E500040F2662109A002F077FDA007010F0D48BE
:100E600024F0030318440F2283688A40934383606D
:100E700082688D402A43826070BD00007372635C9B
:100E800073746D3332663130785F6770696F2E63CB
:100E900000000000000001402DE9F04104464648F2
:100EA00000260D46844215D04448844212D044485E
:100EB00084420FD0434884420CD04348844209D036
:100EC0004248844206D04248844203D0B22141A025
:100ED00002F03AFDE87888B104280FD028280DD018
:100EE00048280BD0142809D0102807D01C2805D07A
:100EF000182803D0B32137A002F026FD288818B99E
:100F0000B42134A002F020FDE87800F00F07C006FD
:100F10000CD5A878012807D0022805D0032803D0D3
:100F2000BB212CA002F010FDA878074328784FF0D1
:100F30000F0C10F0FF0F4FF0010E1BD021682A8814
:100F40000EFA06F00240824210D1B2000CFA02F30F
:100F500021EA030307FA02F1EA781943282A02D0AA
:100F6000482A02D002E0606100E02061761C082E71
:100F7000E5D321602888FF281CD96168002000F192
:100F800008030EFA03F22B88134093420ED183001C
:100F90000CFA03F6B14307FA03F6EB783143282B3A
:100FA00000D16261EB78482B00D12261401C0828F7
:100FB000E5D36160BDE8F08100080140000C01400C
:100FC000001001400014014000180140001C0140C5
:100FD000002001407372635C73746D33326631308C
:100FE000785F6770696F2E63000000002DE9F041A3
:100FF0000D46044601287DD0022C7BD0042C79D0EC
:10100000082C77D0A4F5A01010387DD020387BD0E4
:10101000A4F5B010403877D0803875D0534884425A
:1010200072D0534884426FD0524884426CD05248A8
:10103000844269D05148844266D0B4F5805F63D061
:10104000B4F5EA1F60D0B4F5EB1F5DD0B4F5004FE6
:101050005AD06FF40010C44256D0A4F50010801E80
:1010600052D0801E50D0001F4ED008384CD0B4F162
:10107000201F49D0303847D04148844244D04148AD
:10108000844241D0404884423ED0404884423BD0D4
:101090003F48844238D0B4F5011F35D06FF000408E
:1010A000C44231D0C01C84422ED0801C84422BD03C
:1010B000001D844228D03748844225D0354810305E
:1010C000844221D03348303084421DD031487030C2
:1010D000844219D02F48F030844215D02E488442E3
:1010E00012D02E4884420FD02D4884420CD02D4877
:1010F000844200E008E007D02B48844204D040F24C
:101100002A212AA002F020FC35B1012D04D040F2A2
:101110002B2126A002F018FC2A49002C01DACA690A
:1011200000E04A68630D1E01A3B2C4F30157B34047
:10113000C4F30340032F05D0E6020AD503268640F8
:10114000B24307E022F070604A6822F070624A60A1
:1011500002E09A4342F0706005B11843002C02DAB5
:10116000C861BDE8F0814860FBE70000000118009D
:10117000000218000003180000081A00000C1A00F2
:101180000001300000023000000430000011200097
:101190000020200010000080000200800004008079
:1011A0000008008000100080002000807372635CE3
:1011B00073746D3332663130785F6770696F2E6398
:1011C000000000000000014070B5054627480026D9
:1011D0000C46854216D02648854213D025488542C4
:1011E00010D0254885420DD0244885420AD0244895
:1011F000854207D02348854204D04FF48F7122A046
:1012000002F0A2FB012C2AD0022C28D0042C26D0DC
:10121000082C24D0102C22D0202C20D0402C1ED0E2
:10122000802C1CD0B4F5807F19D0B4F5007F16D087
:10123000B4F5806F13D0B4F5006F10D0B4F5805FB3
:101240000DD0B4F5005F0AD0B4F5804F07D0B4F5E7
:10125000004F04D040F21F110BA002F075FBA868EC
:10126000204200D00126304670BD00000008014039
:10127000000C014000100140001401400018014022
:10128000001C0140002001407372635C73746D3375
:1012900032663130785F6770696F2E63000000003E
:1012A00070B5044611480D46844216D01048844259
:1012B00013D01048844210D00F4884420DD00F48FC
:1012C00084420AD00E48844207D00E48844204D09B
:1012D00040F279110CA002F037FB25B94FF4BD7133
:1012E00009A002F031FB656170BD000000080140FB
:1012F000000C0140001001400014014000180140A2
:10130000001C0140002001407372635C73746D33F4
:1013100032663130785F6770696F2E6300000000BD
:1013200070B5044611480D46844216D010488442D8
:1013300013D01048844210D00F4884420DD00F487B
:1013400084420AD00E48844207D00E48844204D01A
:1013500040F269110CA002F0F7FA25B94FF4B5710B
:1013600009A002F0F1FA256170BD000000080140FB
:10137000000C014000100140001401400018014021
:10138000001C0140002001407372635C73746D3374
:1013900032663130785F6770696F2E63000000003D
:1013A00010B5094C01212046FFF7BAFF282002F0B2
:1013B0006DFB01212046FFF773FF04480068BDE87C
:1013C0001040FFF7ADB80000000C0140AC00002059
:1013D00010B5094C02212046FFF7A2FF282002F099
:1013E00055FB02212046FFF75BFF04484068BDE83B
:1013F0001040FFF795B80000000C0140AC00002041
:10140000FEE7000008B50121042000F03FF90121AA
:10141000084600F03BF928208DF8030003208DF8E2
:1014200002000120ADF8000069460648FFF734FDD0
:1014300000210846FFF7D8FC01210348FFF7D6FD3D
:1014400008BD0000000801400002300008B501217D
:10145000042000F01BF90121084600F017F92820AC
:101460008DF8030003208DF802000220ADF8000083
:1014700069460648FFF710FD01210020FFF7B4FC84
:1014800001210348FFF7B2FD08BD0000000801403C
:1014900000023000FEE770474FF4A06000F050B843
:1014A00070B50446C0780F2528B1012803D07521F6
:1014B0001FA002F049FA6078102803D376211CA0FF
:1014C00002F042FAA078102803D3772118A002F086
:1014D0003BFAE0780122F8B118480068617800F41E
:1014E000E060C0F5E060000AC0F10403C540A078E8
:1014F0009940284008432178000101F1E02181F85A
:101500000004207800F01F018A404009800000F1AB
:10151000E020C0F8002170BD207800F01F018A4053
:101520004009800000F1E020C0F8802170BD00007B
:101530007372635C6D6973632E6300000CED00E0F1
:1015400010B50446B0F5E06F0FD0B4F5C06F0CD005
:10155000B4F5A06F09D0B4F5806F06D0B4F5407F24
:1015600003D0632103A002F0EFF9054804430548C6
:10157000046010BD7372635C6D6973632E63000059
:101580000000FA050CED00E008B50121082000F08C
:101590007DF810208DF8030003208DF80200012053
:1015A000ADF8000069460248FFF776FC08BD000070
:1015B000000C014008B50121082000F067F8102058
:1015C0008DF8030003208DF802000220ADF8000022
:1015D00069460248FFF760FC08BD0000000C0140AE
:1015E0007047000070B504460C480D46044200D117
:1015F00024B940F269410AA002F0A6F90D4E4DB19E
:10160000012D04D040F26A4105A002F09DF9F06975
:10161000204301E0F069A043F06170BD0036018114
:101620007372635C73746D3332663130785F7263EA
:10163000632E63000010024070B504460C480D464E
:10164000044200D124B940F2C3410AA002F07CF95F
:101650000D4E4DB1012D04D040F2C44105A002F061
:1016600073F93069204301E03069A043306170BDF7
:10167000003601817372635C73746D33326631308E
:10168000785F7263632E63000010024070B50446F9
:101690000C480D46044200D124B940F24A410AA048
:1016A00002F052F90D4E4DB1012D04D040F24B41E4
:1016B00005A002F049F9B069204301E0B069A043F8
:1016C000B06170BD0200C0FF7372635C73746D33F0
:1016D00032663130785F7263632E6300001002401F
:1016E00070B504460C480D46044200D124B940F2BE
:1016F000A4410AA002F028F90D4E4DB1012D04D0ED
:1017000040F2A54105A002F01FF9F068204301E076
:10171000F068A043F06070BD0200C0FF7372635CAC
:1017200073746D3332663130785F7263632E630099
:101730000010024010B5012140F20910FFF7A6FF8A
:101740000121BDE810400220FFF74CBF30B5204A10
:101750005168204B11F00C0103D0042901D0082955
:1017600001D0036012E05168536801F470114FF02A
:10177000020413F4803F04EB914102D053689B03B1
:1017800001D5154B00E0134B5943016051680F23FD
:1017900003EA1111114B5C5C0168E140416054683F
:1017A000072505EA14241C5D21FA04F484605468BA
:1017B00005EAD4241B5DD940C1605268032303EAC3
:1017C0009232064B1B1F9A5CB1FBF2F1016130BDF6
:1017D0000010024000127A0000093D0004000020C1
:1017E0007FB500258DF80C502C46009501950A21F7
:1017F0001048029502F038FF0F4E3088000404D5DF
:1018000003A9684602F008FF06E0641CE4B20A205F
:1018100002F031F9322CF0D335809DF80C000A2803
:1018200002D19DF8080010B1002004B070BD012065
:10183000FBE7000078000020A40000207FB5002511
:101840008DF80C502C46009501950A211048029500
:1018500002F022FF0F4E3088000404D503A9684629
:1018600002F0EEFE06E0641CE4B20A2002F003F986
:10187000322CF0D335809DF80C000A2802D19DF857
:10188000080010B1002004B070BD0120FBE700008B
:1018900078000020A40000202DE9FF4100258DF8EC
:1018A0000C502C46009501950A211248029502F031
:1018B000DBFE114E4FF4FA773088000404D503A9FB
:1018C000684602F0A9FE06E0641CE4B2384602F065
:1018D000DDF8322CF0D335809DF80C000A2802D1B7
:1018E0009DF8080018B1002004B0BDE8F081012087
:1018F000FAE7000051000020A40000207FB5002579
:101900008DF80C502C46009501950A21104802953F
:1019100002F0C2FE0F4E3088000404D503A96846C9
:1019200002F08EFE06E0641CE4B20A2002F0A3F886
:10193000322CF0D335809DF80C000A2802D19DF896
:10194000080010B1002004B070BD0120FBE70000CA
:1019500051000020A40000202DE9F0410C4686B083
:10196000214900228DF81020CAC98DE8CA001F49FC
:101970001546835C8E18521CD2B27372082AF8D3B3
:10198000CD740420CB7C0A5C401C5A40C0B2CA749F
:101990001328F7D31421154802F066FE144F0026D1
:1019A0004FF4FA783888000404D504A9684602F098
:1019B00033FE06E0761CF6B2404602F067F8C82E09
:1019C000F0D33D809DF810000E284FF0000008D1A4
:1019D00069460A18527A2254401CC0B20428F8D32F
:1019E000012006B0BDE8F081C84600086400002070
:1019F000A4000020F0B50C4685B0204900228DF8E7
:101A00001020CAC98DE8CA001D491546835C8E188E
:101A1000521CD2B27372082AF8D3CD740420CB7C46
:101A20000A5C401C5A40C0B2CA741328F7D3142170
:101A3000134802F031FE134F00263888000404D505
:101A400004A9684602F0FCFD06E0761CF6B20A2006
:101A500002F011F8322EF0D33D809DF810000E28D0
:101A60004FF0000008D169460A18527A2254401CEF
:101A7000C0B20428F8D3012005B0F0BDD846000854
:101A800064000020A4000020704700000CB5002274
:101A9000264800920192016841F4803101604FF4C0
:101AA000A063016801F4003101910099491C009183
:101AB000019911B900999942F3D10168890333D58D
:101AC000012101911A490A6842F010020A600A686D
:101AD00022F003020A600A6842F002020A604168CA
:101AE000416041684160416841F480614160416802
:101AF00021F47C114160416841F4E81141600168C2
:101B000041F08071016001688901FCD5416821F0D4
:101B100003014160416841F0020141604168C1F345
:101B200081010229FAD10CBD01920CBD00100240C6
:101B300000200240704700000F4810B5016841F0D6
:101B40000101016041680D4A1140416001680C4A81
:101B500011400160016821F480210160416821F495
:101B6000FE0141604FF41F018160FFF78FFF0549BF
:101B70004FF00060086010BD001002400000FFF848
:101B8000FFFFF6FE08ED00E010B50121880700F028
:101B900025F902480169491C016110BDAC00002013
:101BA0002DE9F041DFF8F8800121404600F016F9F8
:101BB0003C4CE069401CE0610A281BD13A4D0821E9
:101BC0002846FFF701FB207329152846FFF7FCFA8A
:101BD0006073E9142846FFF7F7FAA073102128462E
:101BE000FFF7F2FAE07380212846FFF7EDFA207440
:101BF0000020E061206B012502260327012804D084
:101C000002284AD1E06AE8B121E0E06A20B9FEF793
:101C1000E3FD607B012803D0E06A012803D007E0E0
:101C200001F012FFE56202F056F8A07B012805D012
:101C3000E06A022831D1FEF7E9FD19E001F004FF66
:101C4000E662F8E7FEF7D5FDE07B012803D0E06A05
:101C5000012803D007E001F0F7FEE56202F03BF84F
:101C6000207B012815D0E06A022816D1FEF7DBFDA3
:101C7000207B617B0843A17B0843E17B08430CD1B7
:101C800001F0E2FE4046E762BDE8F041002100F0CD
:101C900015B901F0D9FEE662E8E7BDE8F081000081
:101CA0000004004014000020002001403EB542F234
:101CB0000F70ADF804004720ADF8000000200B4C79
:101CC000ADF80600ADF802006946204600F0B4FF0A
:101CD0000121204600F082F801221146204600F042
:101CE000C9F90021204600F0E9F83EBD000400409B
:101CF00070B5044624480D46844234D0B4F1804F78
:101D000031D0224884422ED0214884422BD0214811
:101D1000844228D02048844225D02048844222D0C2
:101D20001F4884421FD01F4884421CD01E48844252
:101D300019D01E48844216D01D48844213D01D4835
:101D4000844210D01C4884420DD01C4884420AD0E2
:101D50001B48844207D01B48844204D040F284517F
:101D600019A001F0F1FD55B1012D04D040F28551CB
:101D700015A001F0E9FD208840F0800002E02088F5
:101D800020F08000208070BD002C01400004004045
:101D900000080040000C004000100040001400400B
:101DA00000340140004C014000500140005401400B
:101DB00000180040001C004000200040004001408E
:101DC00000440140004801407372635C73746D33DA
:101DD00032663130785F74696D2E630070B50446E9
:101DE00021480D46844234D0B4F1804F31D01F4891
:101DF00084422ED01E4884422BD01E48844228D0D4
:101E00001D48844225D01D48844222D01C4884426B
:101E10001FD01C4884421CD01B48844219D01B4848
:101E2000844216D01A48844213D01A48844210D0F3
:101E3000194884420DD0194884420AD01848844277
:101E400007D01848844204D040F6772116A001F04C
:101E50007BFD280A00D125B940F6782112A001F0B7
:101E600073FDE843208270BD002C01400004004057
:101E700000080040000C004000100040001400402A
:101E800000340140004C014000500140005401402A
:101E900000180040001C00400020004000400140AD
:101EA00000440140004801407372635C73746D33F9
:101EB00032663130785F74696D2E630070B5044608
:101EC00024480D46844234D0B4F1804F31D02248AA
:101ED00084422ED0214884422BD02148844228D0ED
:101EE0002048844225D02048844222D01F48844282
:101EF0001FD01F4884421CD01E48844219D01E485F
:101F0000844216D01D48844213D01D48844210D00C
:101F10001C4884420DD01C4884420AD01B4884428D
:101F200007D01B48844204D040F2293119A001F0A7
:101F30000BFD55B1012D04D040F22A3115A001F05E
:101F400003FD208840F0010002E0208820F001001D
:101F5000208070BD002C01400004004000080040BB
:101F6000000C00400010004000140040003401400C
:101F7000004C014000500140005401400018004056
:101F8000001C00400020004000400140004401408F
:101F9000004801407372635C73746D333266313094
:101FA000785F74696D2E630010B504461C48844246
:101FB00034D0B4F1804F31D01A4884422ED01A4820
:101FC00084422BD01948844228D01948844225D015
:101FD0001848844222D0184884421FD017488442AF
:101FE0001CD01748844219D01648844216D016488F
:101FF000844213D01548844210D0154884420DD035
:10200000144884420AD01448844207D013488442BA
:1020100004D04FF41D6112A001F096FCA08C10BDFD
:10202000002C01400004004000080040000C00406B
:10203000001000400014004000340140004C0140FA
:10204000005001400054014000180040001C0040B6
:102050000020004000400140004401400048014091
:102060007372635C73746D3332663130785F746998
:102070006D2E630070B50446284816460D4684420E
:1020800034D0B4F1804F31D0254884422ED0254839
:1020900084422BD02448844228D02448844225D02E
:1020A0002348844222D0234884421FD022488442BD
:1020B0001CD02248844219D02148844216D021489D
:1020C000844213D02048844210D0204884420DD04E
:1020D0001F4884420AD01F48844207D01E488442C9
:1020E00004D040F26B311DA001F02EFC280A00D173
:1020F00025B94FF45B7119A001F026FC4EB1012EF9
:1021000004D040F26D3115A001F01EFCA0892843D7
:1021100001E0A089A843A08170BD0000002C01400F
:102120000004004000080040000C00400010004087
:102130000014004000340140004C014000500140B8
:102140000054014000180040001C004000200040E6
:102150000040014000440140004801407372635C4C
:1021600073746D3332663130785F74696D2E63003D
:102170002DE9F05FDFF86491DFF864A1DFF864B166
:102180000D46044648452CD0B4F1804F29D056481E
:10219000844226D05548844223D05548844220D0DA
:1021A00054451ED0534884421BD05348844218D013
:1021B0005248844215D05248844212D05148844239
:1021C0000FD0514884420CD05C450AD04F4884421D
:1021D00007D04F48844204D04FF48E714DA001F0D7
:1021E000B3FB288870B110280CD020280AD03028E2
:1021F00008D0602806D0702804D040F21D1145A0F8
:1022000001F0A2FB688830B1012804D04FF48F712F
:1022100040A001F099FB288930B1022804D040F297
:102220001F113CA001F090FB208C20F001002084C5
:10223000218CA788208B2A8820F0730042EA0008AE
:10224000288921F002016E88084306434C4509D0D5
:10225000544507D05C4505D02C48844202D02C4818
:10226000844233D1A88830B1042804D04FF49E7141
:1022700028A001F069FB688930B1082804D040F239
:102280003D1124A001F060FBE889B0F5007F05D086
:1022900020B14FF49F711FA001F056FBA889B0F543
:1022A000807F05D020B140F23F111AA001F04CFB15
:1022B00026F008016889AE88084320F00400064330
:1022C00027F44071A889EF8908430743A780A4F841
:1022D0001880E888A0862684BDE8F09F002C014085
:1022E000003401400040014000040040000800406C
:1022F000000C0040004C01400050014000540140DF
:1023000000180040001C0040002000400044014034
:10231000004801407372635C73746D333266313010
:10232000785F74696D2E630070B5044620480D46D1
:1023300084422ED0B4F1804F2BD01E48844228D046
:102340001D48844225D01D48844222D01C48844226
:102350001FD01C4884421CD01B48844219D01B4803
:10236000844216D01A48844213D01A48844210D0AE
:10237000194884420DD0194884420AD01848844232
:1023800007D01848844204D040F2E95116A001F069
:10239000DBFA082D05D025B140F2EA5112A001F078
:1023A000D3FA208B20F008002843208370BD000062
:1023B000002C01400004004000080040000C0040D8
:1023C00000340140004C01400050014000540140E5
:1023D00000180040001C0040002000400040014068
:1023E00000440140004801407372635C73746D33B4
:1023F00032663130785F74696D2E63002DE9F05FCD
:10240000DFF850A1DFF850B10D46044650451BD00F
:10241000B4F1804F18D05148844215D050488442BE
:1024200012D0504884420FD05C450DD04E488442B3
:102430000AD04E48844207D04D48844204D040F22E
:102440006F114CA001F080FA288870B110280CD0D0
:1024500020280AD0302808D0602806D0702804D060
:102460004FF4B87143A001F06FFA688830B10128C9
:1024700004D040F271113FA001F066FA288930B112
:10248000022804D04FF4B9713AA001F05DFA208C13
:1024900020F010002084228CA788208B2B884FF6F8
:1024A000FF7920F4E64109EA032343EA0108298978
:1024B00022F0200209EA011111436A8809EA021692
:1024C0000E43544501D05C453BD1A88830B1042867
:1024D00004D040F28F1127A001F036FA688930B19C
:1024E000082804D04FF4C87122A001F02DFAE88921
:1024F000B0F5007F05D020B140F291111DA001F090
:1025000023FAA889B0F5807F05D020B14FF4C971B6
:1025100018A001F019FA698926F0800209EA011170
:102520001143AA8821F0400109EA02160E43A98945
:1025300027F4406209EA81011143EA8909EA820726
:102540000F43A780A4F81880E88820872684BDE878
:10255000F09F0000002C01400034014000040040C6
:1025600000080040000C0040004C014000180040F2
:10257000004001407372635C73746D3332663130B6
:10258000785F74696D2E630070B5044619480D4676
:1025900084421CD0B4F1804F19D01748844216D021
:1025A0001648844213D01648844210D015488442FD
:1025B0000DD0154884420AD01448844207D01448EC
:1025C000844204D040F2026112A001F0BDF9082D4E
:1025D00005D025B140F203610EA001F0B5F9208BC2
:1025E0004FF6FF7120F4006001EA052101432183C9
:1025F00070BD0000002C01400004004000080040B5
:10260000000C004000340140004C01400018004024
:10261000004001407372635C73746D333266313015
:10262000785F74696D2E63002DE9F05FDFF838A1E3
:10263000DFF838B10D460446504512D0B4F1804F52
:102640000FD04B4884420CD04A48844209D04A48B3
:10265000844206D05C4504D040F2C11147A001F08D
:1026600073F9288870B110280CD020280AD030289F
:1026700008D0602806D0702804D04FF4E1713FA044
:1026800001F062F9688830B1012804D040F2C3112A
:102690003AA001F059F9288930B1022804D04FF44A
:1026A000E27136A001F050F9208C20F48070208473
:1026B000208CA788A18B2A8821F0730142EA0108A7
:1026C00020F4007128894FF6FF7909EA00200843B9
:1026D000698809EA01260643544501D05C453BD18F
:1026E000A88830B1042804D04FF4F07123A001F081
:1026F0002BF9688930B1082804D040F2E1111FA0FD
:1027000001F022F9E889B0F5007F05D020B14FF43F
:10271000F1711AA001F018F9A889B0F5807F05D0F1
:1027200020B140F2E31115A001F00EF9698926F4F9
:10273000006209EA01211143AA8821F4806109EAB3
:1027400002260E43A98927F4405209EA01111143D8
:10275000EA8909EA02170F43A780A4F81C80E888D9
:10276000A0872684BDE8F09F002C01400034014082
:102770000004004000080040000C00407372635CDD
:1027800073746D3332663130785F74696D2E630017
:1027900070B5044612480D46844213D0B4F1804F00
:1027A00010D0104884420DD00F4884420AD00F4800
:1027B000844207D00E48844204D040F21A610DA032
:1027C00001F0C2F8082D05D025B140F21B6109A027
:1027D00001F0BAF8A08B20F008002843A08370BD58
:1027E000002C01400004004000080040000C0040A4
:1027F000003401407372635C73746D333266313040
:10280000785F74696D2E63002DE9F05FDFF8E8A052
:10281000DFF8E8B00D460446504512D0B4F1804FC1
:102820000FD0374884420CD03648844209D036480D
:10283000844206D05C4504D04FF4047133A001F00B
:1028400083F8288870B110280CD020280AD03028AE
:1028500008D0602806D0702804D040F211212BA0A7
:1028600001F072F8688830B1012804D040F21221DA
:1028700026A001F069F8288930B1022804D040F27E
:10288000132122A001F060F8208C20F480502084D5
:10289000218CA688A08B2B884FF6FF7920F4E64286
:1028A00009EA0327174321F40052298909EA013173
:1028B00011436A88544509EA023040EA010801D010
:1028C0005C450FD1A889B0F5807F05D020B14FF4C9
:1028D0000C710EA001F038F8AA8926F4804009EAAC
:1028E00082160643A680A783E888A4F84000A4F8CF
:1028F0002080BDE8F09F0000002C01400034014022
:102900000004004000080040000C00407372635C4B
:1029100073746D3332663130785F74696D2E630085
:1029200070B5044614480D46844213D0B4F1804F6C
:1029300010D0124884420DD0114884420AD0114868
:10294000844207D01048844204D040F232610FA084
:1029500000F0FAFF082D05D025B140F233610BA03D
:1029600000F0F2FFA08B4FF6FF7120F4006001EA47
:1029700005210143A18370BD002C014000040040EB
:1029800000080040000C0040003401407372635C9A
:1029900073746D3332663130785F74696D2E630005
:1029A00030B587B001210420FEF71CFE6320ADF88E
:1029B00014004720ADF8100000241E4DADF816405D
:1029C000ADF8124004A9284600F036F96020ADF8B1
:1029D00000000120ADF80200ADF80640ADF8084057
:1029E00069462846FFF7C4FB08212846FFF79CFCF0
:1029F00069462846FFF702FD08212846FFF7C4FD77
:102A000069462846FFF710FE08212846FFF7C0FE5A
:102A100069462846FFF7F8FE08212846FFF780FFA1
:102A200001212846FFF764F901212846FFF746FAFD
:102A300007B030BD0008004070B504461A480D4686
:102A400084422ED0B4F1804F2BD01848844228D035
:102A50001748844225D01748844222D01648844221
:102A60001FD0164884421CD01548844219D01548FE
:102A7000844216D01448844213D01448844210D0A3
:102A8000134884420DD0134884420AD0124884422D
:102A900007D01248844204D040F6F70110A000F09D
:102AA00053FFA58670BD0000002C014000040040CB
:102AB00000080040000C004000340140004C014080
:102AC000005001400054014000180040001C00402C
:102AD0000020004000400140004401400048014007
:102AE0007372635C73746D3332663130785F74690E
:102AF0006D2E630070B5044611480D4684421CD00B
:102B0000B4F1804F19D00F48844216D00E48844249
:102B100013D00E48844210D00D4884420DD00D4889
:102B200084420AD00C48844207D00C48844204D026
:102B300040F605110AA000F007FF258770BD0000D0
:102B4000002C01400004004000080040000C004040
:102B500000340140004C014000180040004001409A
:102B60007372635C73746D3332663130785F74698D
:102B70006D2E630070B504460C480D46844213D098
:102B8000B4F1804F10D00A4884420DD009488442E5
:102B90000AD00948844207D00848844204D040F64D
:102BA000131107A000F0D0FEA58770BD002C0140D6
:102BB0000004004000080040000C004000340140C8
:102BC0007372635C73746D3332663130785F74692D
:102BD0006D2E630070B504460D480D46844213D037
:102BE000B4F1804F10D00B4884420DD00A48844283
:102BF0000AD00A48844207D00948844204D040F6EB
:102C0000211108A000F0A0FEA4F8405070BD000003
:102C1000002C01400004004000080040000C00406F
:102C2000003401407372635C73746D33326631300B
:102C3000785F74696D2E63002DE9F05F444FDFF813
:102C40001481DFF81491DFF814A1DFF814B1454EB8
:102C50000D460446B8422ED0B4F1804F2BD04445E7
:102C600029D04C4527D0544525D05C4523D03E483B
:102C7000844220D0B4421ED03C4884421BD03C4801
:102C8000844218D03B48844215D03B48844212D03D
:102C90003A4884420FD03A4884420CD039488442A2
:102CA00009D03948844206D03848844203D0E7210D
:102CB00037A000F049FE688858B1102809D02028B4
:102CC00007D0402805D0602803D0E82130A000F0CC
:102CD0003BFEE88848B1B0F5807F06D0B0F5007FB4
:102CE00003D0E9212AA000F02FFE2088BC420AD0A0
:102CF000B44208D0B4F1804F05D0444503D04C45D0
:102D000001D0544503D120F07001688808435C4528
:102D100006D015498C4203D020F44071E88808435E
:102D20002080A888A08528882085BC420AD0B4428B
:102D300008D01448844205D01348844202D0134876
:102D4000844201D1287A20860120A082BDE8F09F2C
:102D5000002C01400004004000080040000C00402E
:102D6000001000400034014000140040004C0140BD
:102D7000005001400054014000180040001C004079
:102D80000020004000400140004401400048014054
:102D90007372635C73746D3332663130785F74695B
:102DA0006D2E630010B5164C40F22551204600F000
:102DB00061FA002823D0204600F034FC124BC0B248
:102DC000104C5988AA280FD049B15988CAB2A054CA
:102DD0001878C01C824202D141F4004058805888C3
:102DE000C1B2022907D008E00029EED14FF480419A
:102DF00059802070E9E7A1781970401C588010BDF7
:102E000000380140D4000020A200002010B5164C6C
:102E100040F22551204600F02DFA002823D020460C
:102E200000F000FC124BC0B2104C5988AA280FD0F9
:102E300049B15988CAB2A0541878C01C824202D144
:102E400041F4004058805888C1B2022907D008E0F8
:102E50000029EED14FF4804159802070E9E7A17834
:102E60001970401C588010BD00440040D400002060
:102E7000A20000201FB500F061F801F0F1F84FF456
:102E8000164000900020ADF80400ADF80600ADF843
:102E90000800ADF80C000C200A4CADF80A00694699
:102EA000204600F0EDFA012240F22551204600F0C4
:102EB00067FA0121204600F0E9F84021204600F0A1
:102EC00041F81FBD0048004070B51A4C40F225552E
:102ED0002946204600F0CEF990B12946204600F060
:102EE0007BF8204600F09EFBC1B2134A0120532913
:102EF000517202D0542903D101E0107000E05070EB
:102F000040F227752946204600F0B4F918B1294649
:102F1000204600F061F840F226652946204600F080
:102F2000A9F9002805D029462046BDE8704000F0E8
:102F300053B870BD004800401400002001218804EF
:102F4000FEF750BB2DE9F041184E194FDFF86480B1
:102F50000D460446B0420ED0BC420CD044450AD0C7
:102F60001548844207D01548844204D040F29E316F
:102F700013A000F0E9FC35F4587000D125B940F2F7
:102F80009F310FA000F0E0FCA8050AD5B44208D09C
:102F9000BC4206D0444504D040F2A33108A000F062
:102FA000D3FCE8432080BDE8F081000000380140F8
:102FB0000044004000480040004C004000500040E9
:102FC0007372635C73746D3332663130785F75731E
:102FD0006172742E630000002DE9F047204EDFF887
:102FE0008480DFF884900D460446B0420ED04445FC
:102FF0000CD04C450AD01D48844207D01C4884425E
:1030000004D040F20A411BA000F09EFCA5F5C06070
:1030100040F66A1726380ED0A5F5A06025380AD0EC
:10302000A5F50060463806D0BD4204D040F20B4101
:1030300010A000F089FCBD420AD1B44208D044453A
:1030400006D04C4504D040F20F410AA000F07CFCB1
:10305000290A01208840C0432080BDE8F087000095
:10306000003801400044004000480040004C00404F
:10307000005000407372635C73746D33326631309C
:10308000785F75736172742E6300000070B504463A
:1030900012480D46844210D0114884420DD0114888
:1030A00084420AD01048844207D01048844204D099
:1030B0004FF4B1710EA000F047FC55B1012D04D0C2
:1030C00040F263110AA000F03FFCA08940F40050D8
:1030D00002E0A08920F40050A08170BD00380140BA
:1030E0000044004000480040004C004000500040B8
:1030F0007372635C73746D3332663130785F7573ED
:103100006172742E630000002DE9F047204D214EBE
:10311000214FDFF88880DFF888900446A8420BD062
:10312000B44209D0BC4207D0444505D04C4503D039
:1031300085211CA000F008FCAC420AD101218C03BF
:103140002046FEF7CDFA2046BDE8F0470021FEF705
:10315000C7BAB44202D101214C040DE0BC4202D1F5
:1031600001218C0408E0444502D10121CC0403E094
:103170004C450AD101210C052046FEF75DFA204698
:10318000BDE8F0470021FEF757BABDE8F087000020
:10319000003801400044004000480040004C00401E
:1031A000005000407372635C73746D33326631306B
:1031B000785F75736172742E630000002DE9F0472B
:1031C000214F0026DFF88480DFF884900C46054606
:1031D000B8420ED045450CD04D450AD01D48854219
:1031E00007D01D48854204D040F26E311BA000F08C
:1031F000ABFB012C21D0802C1FD0402C1DD0202CCB
:103200001BD0102C19D0B4F5807F16D0B4F5007FF8
:1032100008D0082C11D0042C0FD0022C0DD040F275
:103220006F3107E0BD4208D0454506D04D4504D07A
:1032300040F2733109A000F087FB2888204200D0BB
:1032400001263046BDE8F0870038014000440040C8
:1032500000480040004C0040005000407372635C26
:1032600073746D3332663130785F75736172742EAA
:10327000630000002DE9F047DFF8D8800026DFF872
:10328000D890DFF8D8A00C46054640450ED04D45F5
:103290000CD055450AD03248854207D03148854286
:1032A00004D040F2C13130A000F04EFB282C32D0C7
:1032B000A4F5E06040F66A1727381FD0A4F5C06077
:1032C00026381BD0A4F5A060253817D0A4F580605F
:1032D000243813D0A4F5006046380FD0BC420DD07E
:1032E000B4F5587F17D0B4F5187F14D0B4F5B07F7B
:1032F00011D040F2C2311CA000F026FBBC420AD122
:10330000454508D04D4506D0554504D040F2C6315C
:1033100015A000F019FB04F01F020123C4F34211B1
:1033200003FA02F0012910D0022910D0A98A4FEA2D
:10333000142203FA02F32A88014202EA030201D0AE
:1033400002B101263046BDE8F087A989EFE7298A56
:10335000EDE7000000380140004400400048004014
:10336000004C0040005000407372635C73746D3316
:1033700032663130785F75736172742E63000000BD
:103380002DE9F047DFF8CC80DFF8CC90DFF8CCA057
:1033900016460C46054640450ED04D450CD05545C9
:1033A0000AD02F48854207D02E48854204D040F2EB
:1033B00089112DA000F0C8FA40F66A17282C1CD0FD
:1033C000A4F5E060273818D0A4F5C060263814D0E2
:1033D000A4F5A060253810D0A4F5806024380CD066
:1033E000A4F50060463808D0BC4206D0602C04D05A
:1033F0004FF4C5711CA000F0A7FA36B1012E04D01D
:1034000040F28B1118A000F09FFABC420AD145454A
:1034100008D04D4506D0554504D040F28F1112A07A
:1034200000F092FA04F01F020120C4F34211904010
:10343000012906D0022906D0143529682EB101438E
:1034400004E00C35F9E71035F7E781432960BDE862
:10345000F087000000380140004400400048004070
:10346000004C0040005000407372635C73746D3315
:1034700032663130785F75736172742E63000000BC
:103480002DE9F0435B4E5C4FDFF8708185B00D464F
:103490000446B0420DD0BC420BD0444509D0584838
:1034A000844206D05748844203D0B82156A000F089
:1034B0004BFA28685A49401E884203D3B92152A0CA
:1034C00000F042FAA8884FF4805928B1484503D04B
:1034D000BA214DA000F038FAE88858B1484509D023
:1034E000B0F5005F06D0B0F5405F03D0BB2146A029
:1034F00000F02AFA288948B1B0F5806F06D0B0F5FF
:10350000C06F03D0BC2140A000F01EFA688930F0E3
:103510000C0100D118B9BD213BA000F015FAA88913
:10352000C0B1B0F5807F0BD0B0F5007F08D0B0F50A
:10353000407F05D0BE2134A000F006FAA88948B12A
:10354000B44207D0BC4205D0444503D0C2212EA0CE
:1035500000F0FAF9208A4CF6FF710840E98801432F
:103560002182A1894EF6F3100140A8882A891043D0
:103570006A890A431043A081A08A4FF6FF410840A0
:10358000A9890143A1826846FEF7E0F8B44201D15F
:10359000039800E00298A189090400EBC00101EB47
:1035A0000010296801D5490000E08900B0FBF1F066
:1035B0006422B0FBF2F109010B096FF018056B43AF
:1035C00000EB8300A3891D044FF0320306D503EB03
:1035D000C000B0FBF2F000F0070005E003EB0010C4
:1035E000B0FBF2F000F00F000843208105B0BDE809
:1035F000F0830000003801400044004000480040D3
:10360000004C0040005000407372635C73746D3373
:1036100032663130785F75736172742E630000001A
:1036200020AA440010B504460B48844210D00B4831
:1036300084420DD00A4884420AD00A48844207D006
:103640000948844204D04FF4197108A000F07CF9B5
:10365000A088C0F3080010BD0038014000440040BD
:1036600000480040004C0040005000407372635C12
:1036700073746D3332663130785F75736172742E96
:103680006300000070B5044610480D46844210D017
:103690000F4884420DD00F4884420AD00E4884421D
:1036A00007D00E48844204D040F253210CA000F011
:1036B0004BF9B5F5007F04D34FF4157108A000F065
:1036C00043F9C5F30800A08070BD00000038014038
:1036D0000044004000480040004C004000500040C2
:1036E0007372635C73746D3332663130785F7573F7
:1036F0006172742E63000000FEE700000FB4054BFA
:1037000010B503A9044A029800F018F810BC5DF83F
:1037100014FB00001D3B0008A800002002E008C8C0
:10372000121F08C1002AFAD170477047002001E03B
:1037300001C1121F002AFBD1704700002DE9FF4F85
:103740008BB09A460F460546002606E025280BD08A
:1037500052460D9990476D1C761C28780028F5D1AB
:103760000FB03046BDE8F08F0024A046012260492A
:1037700000E0044315F8013F203B02FA03F0084241
:10378000F7D128782E2817D115F8010F44F004043A
:103790002A280ED06FF02F022878A0F130010929D5
:1037A0000AD808EB880102EB410100EB01086D1C0F
:1037B000F2E757F8048B6D1C287869283ED006DCA8
:1037C0000028CDD063280BD0642804D136E07328BC
:1037D00010D075284BD052460D999047761C85E045
:1037E00017F8040B8DF8000000208DF80100E94661
:1037F000012003E057F8049B4FF0FF3061074FF0C2
:10380000000401D40AE0641C44450DDA8442FADB6A
:1038100019F804100029F6D106E0641C8442FCDB90
:1038200019F804100029F8D1264404E019F8010B16
:1038300052460D999047641EF8D257E001CF4FF0E1
:103840000A0B002802DA40422D2102E0210504D5AE
:103850002B218DF82410012103E0E10705D0202160
:10386000F7E70DF1200908910CE00021F9E701CFFD
:103870004FF00A0BF9E75946FCF7B2FE01F13002AE
:1038800009F8012D0028F6D1ADEB090000F1200B5D
:10389000600701D44FF00108D84502DDA8EB0B000A
:1038A00000E000208046002406E009A85246005DA2
:1038B0000D999047641C761C08988442F5DB04E05F
:1038C000302052460D999047761CB8F10001A8F1BE
:1038D0000108F5DC05E019F8010B52460D999047F7
:1038E000761CBBF10001ABF1010BF4DC6D1C34E77D
:1038F0000928010070B5124C1248002521790129D0
:1039000008D0022908D020460329407913D0042981
:1039100013D013E0412100E04221FFF7B3FE02E0A3
:103920000A2000F0A8F860780028F9D06570A07926
:10393000401CA07102E0E07500E02076257170BDAA
:1039400014000020004800400A46014601A0FFF78D
:10395000D5FEFEE757726F6E6720706172616D650C
:10396000746572732076616C75653A2066696C6562
:10397000202573206F6E206C696E652025640D0A0A
:10398000000000002DE9F0412D4C4FF000080546E5
:1039900084F810804FF480772A4E47E000F08EF9CB
:1039A00039463046FDF710FC20744FF480613046F4
:1039B000FDF70AFC607310213046FDF705FCE0734B
:1039C000A16BE1B9617B012902D061B101D016E0A0
:1039D00010B1012830D012E000220121022000F0B5
:1039E000C9FB282207E0012809D128220121022051
:1039F00000F0C0FB00220121084600F0BBFB0A20BA
:103A000000F039F8207C0028C8D000F057F939467A
:103A10003046FDF7D9FB20740A2000F02CF8207CFA
:103A20000028F2D16D1EEDB2C4F83880002DE9D126
:103A3000BDE8F04100F008B80120A063E2E7000013
:103A4000140000200020014010B5002201210220B6
:103A500000F090FB01210022084600F08BFB0221C0
:103A60000022084600F086FB00220221BDE810403B
:103A7000012000F07FBB10B503464FF47A7402E0DA
:103A8000204600F003F85B1EFAD210BD03E00721C8
:103A9000491EC9B2FCD2401EF9D270473EB500257E
:103AA0008DF80450102001248DF8050000948DF845
:103AB00006406846FDF720F84FF4E060FDF740FD52
:103AC00006208DF808008DF809508DF80A508DF801
:103AD0000B4002A8FDF7E4FC3EBD3EB502200024E9
:103AE00000908DF8044010208DF8050001258DF818
:103AF00006506846FDF700F84FF4E060FDF720FD42
:103B000007208DF808008DF809408DF80A408DF8DF
:103B10000B5002A8FDF7C4FC3EBD000070B5074D78
:103B2000044640212846FFF749FB0028F9D0E1B2BE
:103B30002846FFF7A7FD204670BD00000044004066
:103B40002DE9F041401CC4B24FF48066124F134D72
:103B50001BE000F059FB31463846FDF735FB687332
:103B60000A20FFF788FF687B0028F2D000F04CFBAA
:103B700031463846FDF728FB68730A20FFF77BFFC4
:103B8000687B0028F2D1641EE4B2002CEBD1BDE8C2
:103B9000F041FFF759BF0000002001401400002051
:103BA00070B5124C00204FF48075A074104E00F0D8
:103BB00085F829463046FDF707FBA0740A20FFF779
:103BC0005AFFA07C0028F2D000F078F82946304651
:103BD000FDF7FAFAA0740A20FFF74DFFA07C002839
:103BE000F2D1BDE87040FFF72FBF000014000020A5
:103BF000002001402DE9F0412E4C00270546277496
:103C00002D4E4AE000F067F880213046FDF7DCFADF
:103C100020744FF480613046FDF7D6FA60731021AE
:103C20003046FDF7D1FAE073616B01BB617B01297E
:103C300002D0D1B101D01AE010B1012837D016E07E
:103C4000E078012806D102212822084600F092FAE5
:103C5000002205E002210022084600F08BFA28220B
:103C60000221012000F086FA01E001281BD00A2081
:103C7000FFF701FF207C0028C4D000F02CF8802141
:103C80003046FDF7A1FA20740A20FFF7F4FE207CED
:103C90000028F2D16D1EEDB26763002DEAD1BDE8B8
:103CA000F041FFF7D1BEE0780128D3D0CBE7012067
:103CB0006063DFE7140000200020014010B50121FF
:103CC0002822084600F056FA28220121BDE81040BB
:103CD000022000F04FBA10B528220221012000F086
:103CE00049FA28220221BDE81040084600F042BAF5
:103CF0002DE9F04105464FF0FF36FDF751FB044634
:103D00003C20FFF7B8FEFDF74BFB07463C20FFF7D2
:103D1000B2FE39462046FCF717FA3146FCF76CFA3A
:103D2000044601462846FCF747FC1CD215E000F08B
:103D30006BFAFDF735FB04463C20FFF79CFEFDF7D0
:103D40002FFB07463C20FFF796FE39462046FCF73E
:103D5000FBF93146FCF750FA044621462846FCF7A9
:103D60002BFC29D2E3E721462846FCF72FFC23D27F
:103D70001DE001212822084600F0FCF9282201213B
:103D8000022000F0F7F9FDF70BFB04463C20FFF79B
:103D900072FEFDF705FB07463C20FFF76CFE394637
:103DA0002046FCF7D1F93146FCF726FA04462146B5
:103DB0002846FCF70BFCDCD3BDE8F041FFF744BE1E
:103DC0002DE9F05FFDF7B6FCFCF7C8FFFCF738FD06
:103DD000FCF747FDFCF762FFFFF74CF8FDF766FFC5
:103DE000FEF7DEFDDFF85C92974C06E06121484665
:103DF000FFF748FC0A20FFF73EFE20780028F5D0A8
:103E00000026267001219148FDF7DEF9012540B119
:103E1000E670DFF83CB2E5705846FFF769FF657160
:103E200004E0E570F5E700F07FF9207120790028C3
:103E3000F9D0FFF75FFDDFF81CA25046FFF758FFEF
:103E400000F052FA3DE00120FFF7D4FE02E000F05E
:103E50003BF9207120790028F9D0C0B2274601280B
:103E600007D02146022804D0032821D0042822D0DC
:103E700023E000F089FA5846FFF73AFF3879012825
:103E800004D042214846FFF7FDFB04E04121F9E759
:103E90000A20FFF7F0FD78780028F9D07E70B87915
:103EA000401CB8715046FFF723FF00F01DFA04E0F4
:103EB0004879E07501E0487920767879401C78717E
:103EC0003E7160790828BED3E17D207E814202D90F
:103ED000E171207201E02172E07101215E482563E9
:103EE000FDF7ECFF02E00A20FFF7C5FDE06A0328BA
:103EF000F9D1FFF7A9FD594F4FF00578206A16E078
:103F000000F0ACF9FDF764FA60623C20FFF7B3FD06
:103F1000FDF75EFAA0623C20FFF7ADFDD4E9090190
:103F2000FCF712F94FF0FF31FCF766F920623844D4
:103F30004045E5D8FFF788FD50214F464846FFF73A
:103F4000A1FB02E00A20FFF796FD60780028F9D077
:103F50006670FFF725FE00F0EFF9D0465046FFF7F8
:103F6000C7FE4FF47A794846FFF785FD00F0BCF9AB
:103F70004846FFF780FDE079C0F10700C0B2FFF7C7
:103F800001FD00F001FA5846FFF7B2FE4121384624
:103F9000FFF778FB02E00A20FFF76DFD607800284C
:103FA000F9D066704046FFF7A3FE00F09DF9E07976
:103FB000217A401AC0B2FFF7E5FC00F0E5F9584657
:103FC000FFF796FE42213846FFF75CFB02E00A202D
:103FD000FFF751FD60780028F9D066704046FFF782
:103FE00087FE00F081F9207AC0F10700C0B2FFF728
:103FF00001FE00F0EDF9A070FFF7A2FD00F020FA3D
:10400000A572124DAE1431462846FDF7DDF8A072B8
:1040100040B91420FFF73AFD31462846FDF7D4F8A1
:10402000A07258B100F01AF9A07A0028EBD144210F
:104030003846FFF727FB0020BDE8F09FFFF704FD9F
:10404000F5E7000000480040140000200020014077
:104050000000A0420000F042000400400000E0BE6A
:1040600038B54FF4C0652846FDF76AFA1E208DF872
:10407000000001248DF8014002208DF802008DF827
:1040800003406846FDF70CFA2846FDF759FA1D2053
:104090008DF800008DF801408DF802408DF8034046
:1040A0006846FDF7FDF92846FDF74AFA27208DF806
:1040B00000008DF8014000208DF802008DF80340CB
:1040C0006846FDF7EDF938BD3EB500240094019433
:1040D0000294FDF7E1F94FF4964000F0F3F9FDF793
:1040E000DBFB104DE874FDF7D7FBE8740EE0684683
:1040F000FCF76AFD28756846FCF766FD287502A97D
:104100006846FDF729FC641C6875A4B29DF8080098
:1041100008B90A2CEBD3FDF763FBA8759DF80800DE
:104120003EBD0000140000203EB500240094019420
:104130000294FDF7B1F94FF4964000F015FAFDF73F
:10414000DDFBFDF7DBFB0BE06846FCF773FD684623
:10415000FCF770FD02A96846FDF74CFC641CA4B294
:104160009DF8080008B90A2CEED3FDF767FB9DF80F
:1041700008003EBD03460A48012B04D00129114620
:104180000CD0FEF727BD012902D01146FEF7B2BCC4
:10419000044B012119701146FEF74EBCFEF7EABC34
:1041A000000800405000002008B51C208DF80000D9
:1041B00000208DF8010001208DF802008DF8030029
:1041C0006846FDF76DF908BD3EB50D460446012170
:1041D0000846FDF707FAADF804400020ADF800509E
:1041E000ADF80600ADF802004FF080446946204665
:1041F000FEF722FD01212046FDF7F0FD01221146C8
:104200002046FDF737FF3EBD70B5124D022128460E
:10421000FCF7DAFF104C0421A0722846FCF7D4FF0B
:10422000E072A17A012902D029B102D005E001286B
:1042300003D050B101E0012803D0BDE87040FFF782
:104240004ABDBDE8704000F023B9BDE8704000F001
:104250002CB90000002001401400002070B5204D52
:1042600008212846FCF7B0FF1E4C2915207328466C
:10427000FCF7AAFF6073E9142846FCF7A5FFA073BA
:1042800010212846FCF7A0FFE073217B012903D011
:1042900059B1A27B4AB10DE0627B012AF9D1A27B20
:1042A000012AF6D1012812D010E0627B012A07D042
:1042B000012805D0012907D0A17B012904D006E0FF
:1042C000BDE8704000F0F1B8617B21B118B1BDE8E4
:1042D0007040FFF700BDBDE8704000F0D9B80000A5
:1042E000002001401400002070B5114C0020114D39
:1042F0002074FCF798FA80212846FCF765FF2074AB
:104300000A20FFF7B8FB207C0028F2D0FCF78BFADC
:1043100080212846FCF758FF20740A20FFF7ABFBEA
:10432000207C0028F2D1BDE87040FFF78DBB000073
:10433000140000200020014070B5114C0020114DE8
:10434000E072FCF763FA02212846FCF73DFFE072B9
:104350000A20FFF790FBE07A0028F2D0FCF756FA2B
:1043600002212846FCF730FFE0720A20FFF783FBAA
:10437000E07A0028F2D1BDE87040FFF765BB00008D
:10438000140000200020014070B50F4C00200F4D9C
:10439000A072FCF73BFA02212846FCF715FFA07239
:1043A0000A20FFF768FBA07A0028F2D0FCF72EFA6B
:1043B00002212846FCF708FFA0720A20FFF75BFBEA
:1043C000A07A0028F2D170BD140000200020014026
:1043D0002DE9F041184D0020184EA87202213046F8
:1043E000FCF7F2FE012802D0022427461DE001243A
:1043F000FBE7FCF718FA04213046FCF7E5FEA8724B
:104400000A20FFF738FBA87A0028F2D0FCF70BFA55
:1044100004213046FCF7D8FEA8720A20FFF72BFBD8
:10442000A87A0028F2D1641EE4B2002CEBD1FFF789
:104430000BFB3846BDE8F08114000020002001404D
:1044400070B54FF48065104E104C09E0FCF7B7F9D9
:1044500029463046FCF7B8FE60730A20FFF70BFBD5
:10446000607B0028F2D0FCF7AAF929463046FCF719
:10447000ABFE60730A20FFF7FEFA607B0028F2D1E2
:10448000BDE87040FFF7E0BA0020014014000020B2
:1044900010B50A2202210120FFF76CFE46220221FC
:1044A000BDE810400846FFF765BE10B54622022160
:1044B0000120FFF75FFE0A220221BDE810400846F6
:1044C000FFF758BEF0B5044687B0012144F204005E
:1044D000FDF7DCF8224E3046FEF716FE7015ADF8FB
:1044E000100003258DF8125018201E4F8DF8130070
:1044F00004A93846FCF7D0FC3015ADF810000420B4
:104500008DF8130004A93846FCF7C6FC0020ADF86E
:104510000400ADF80600ADF80800ADF80C000C2062
:10452000ADF80A00009469463046FEF7A9FF252041
:104530008DF8140001208DF815008DF816508DF8B7
:10454000170005A8FCF7ACFF012240F225513046C8
:10455000FEF716FF01213046FEF798FD07B0F0BDCB
:1045600000380140000801402DE9F041804601215A
:1045700086B04804FDF736F801210420FDF786F8DF
:10458000234E3046FEF7C0FD0424ADF8104003254D
:104590008DF8125018201F4F8DF8130004A93846CB
:1045A000FCF77AFC0820ADF810008DF8134004A940
:1045B0003846FCF771FC0021ADF80810ADF8041086
:1045C0000C20ADF80610ADF80C10ADF80A00CDF8CF
:1045D000008069463046FEF753FF26208DF8140010
:1045E00001208DF815008DF816508DF8170005A8DC
:1045F000FCF756FF012240F225513046FEF7C0FE7F
:1046000001213046FEF742FD06B0BDE8F081000012
:104610000044004000080140074B10B59B780B7028
:104620000022064B03E09C5C8454521CD2B20C78EE
:104630009442F8D810BD0000A2000020D400002051
:10464000074B10B59B780B700022064B03E09C5C77
:104650008454521CD2B20C789442F8D810BD000099
:10466000A2000020D40000202DE9F0410D460646AE
:104670000024084F0AE0315D3846FFF703F8402177
:104680003846FEF79BFD0128F9D1641CAC42F2DBF1
:10469000BDE8F081003801402DE9F0410D460646A5
:1046A0000024084F0AE0315D3846FEF7EBFF402159
:1046B0003846FEF783FD0128F9D1641CAC42F2DBD9
:1046C000BDE8F0810044004002000000000000004E
:1046D00000000000000000000200000000000000D8
:1046E0000000000000000000084700080000002053
:1046F000D40000001C370008DC470008D40000206C
:10470000240400002C370008020406080000000002
:104710000102030401020304060708090000000067
:104720000000000000000000000000000000000089
:104730000000000000000000000000000000000079
:104740000000000000000000000000000000000069
:10475000000000000000000000AABB0600000008E6
:10476000013138AABB05000000011011AABB1000DE
:104770000000051002000000000000000000010021
:10478000AABB060000000C01000DAABB130000002C
:104790000610020000000000000000000000000001
:1047A00000AABB0500000004010500000000000095
:1047B00000000000000000000000000000000000F9
:1047C00000000000000000000000000000000000E9
:0C47D0000000704100000000000000002C
:0400000508000101ED
:00000001FF
