:020000040800F2
:100000000005002001010008EF1400085914000841
:10001000ED140008BD07000851370008000000007B
:10002000000000000000000000000000E11A0008CD
:10003000C508000800000000391600088D1B0008E4
:100040001B0100081B0100081B0100081B01000820
:100050001B0100081B010008C908000891090008DD
:100060001B0100081B0100081B0100081B01000800
:100070001B0100081B0100081B0100081B010008F0
:100080001B0100081B0100081B0100081B010008E0
:100090001B0100081B0100081B0100081B010008D0
:1000A0001B0100081B0100081B0100081B010008C0
:1000B000E11B0008F91B00081B0100081B010008D8
:1000C0001B0100081B0100081B0100081B010008A0
:1000D0001B010008FD2D0008652E0008212F0008D7
:1000E0001B0100081B0100081B010008DFF80CD0F1
:1000F00000F052FB00480047513F00080005002077
:100100000648804706480047FEE7FEE7FEE7FEE7B1
:10011000FEE7FEE7FEE7FEE7FEE7FEE7911B0008CD
:10012000ED000008D2B201E000F8012B491EFBD21D
:1001300070470022F6E710B513460A4604461946F2
:10014000FFF7F0FF204610BDF0B480EA0102D40FA3
:100150004200B2EB410F02D20246084611464A0065
:1001600042D0C30DDDB2C1F3C752AD1A202D35DA2E
:10017000C1F3160141F4000204B15242C5F1200658
:1001800002FA06F12A411044B3EBD05F23D0C4B188
:10019000012DA0EBC35009DCF0BC4FF0004202EA95
:1001A000C352DBB200F5000000F06ABA400000F173
:1001B000807000EBC350A0F1807040EAD17049001C
:1001C00009E0490841EAC071A0EBC35000F5000006
:1001D000400800EBC350F0BC00F049BA6142012274
:1001E00002EB4101001BF6E7F0BC704781F00041D3
:1001F000AAE780F00040A7E7420005D0C0F3C7524D
:100200005242914201DC0020704700EBC150704720
:100210002DE9FE4F804681EA0300C00F0C46009096
:1002200021F0004123F00045B8EB0200A94105D2BE
:100230004046214690461C460B46024623F00040AD
:10024000104347D0270DC7F30A00C3F30A510290A9
:10025000401A019040286BDAC3F3130040F4801B6E
:100260000098924620B10023D2EB030A63EB0B0BFC
:1002700001985946C0F14002504600F0C7F90646C1
:100280000D4650465946019A00F0DFF910EB080080
:100290006141002487EA115284EAE7731A4340D08F
:1002A000009A62B3019A012A4FEA075215DC001B3B
:1002B00061EB02014FF0004202EA0752CDE9004231
:1002C000001C41F5801132462B4600F016FA03B0AF
:1002D000BDE8F08F40462146F9E7001B61EB0201C3
:1002E000001C41F5801300185B412018A2F500178F
:1002F00047EB030140EAD570B6196D4111E06D0876
:100300004FEA360645EAC0754FEA0752001B61EB1B
:100310000201001C41F5801149084FEA3000001924
:10032000514132462B4603B0BDE8F04F00F0D6B93C
:100330000098012240000023D0EB020263EBE0733F
:10034000009821464FEAE074B8EB000061EB04012D
:10035000E9E783F000435BE781F0004158E72DE9CE
:10036000FE4F81EA030404F0004421F000410094B0
:100370004FF0000B23F0004350EA01045ED052EA34
:1003800003045BD0C3F30A54C1F30A552C44A4F20E
:10039000F3340194A0FB0254C1F3130141F4801122
:1003A000C3F3130343F4801301FB024400FB034E29
:1003B000840A970A44EA815447EA8357A4FB0768F2
:1003C00002958D0A05FB07854FEA932C04FB0C541C
:1003D0002705029D4FEA065847EA1637B5EB080590
:1003E0006EEB070C870E920E47EA811742EA8312E2
:1003F000A7FB0201B6EB0B0164EB00042B0D43EAF3
:100400000C335E1844EB1C50DA465146E7FB020100
:10041000C5F313044FEA0B3343EA14534FEA043293
:10042000019C43EA0603A4F10C040294009CCDE96C
:1004300000B400F062F903B0BDE8F08F002001467F
:10044000F9E72DE9F04D81EA030404F0004B21F0B7
:10045000004514464FF0000A23F0004150EA05021F
:1004600020D054EA01021DD0C5F30A570246C5F355
:100470001303C1F31300C1F30A5640F4801543F48B
:100480008013A7EB0608101BD64608F2FD3873EB65
:10049000050002D308F1010801E092185B41B8F1B0
:1004A000000F03DA00200146BDE8F08D00204FF474
:1004B0008011064684460EE0171B73EB050705D333
:1004C000121B63EB050306434CEA010C49084FEA93
:1004D000300092185B4150EA0107EDD152EA030067
:1004E00012D082EA040083EA0501084305D0101BFC
:1004F000AB4106D20122002306E000224FF0004368
:1005000002E06FF0010253101AEB06004CEB0851A9
:1005100010EB0A0041EB0B01BDE8F04D00F0DEB836
:10052000C10F80EAE0700844CA079623002100F05A
:10053000A7B80EB5C10F80EAE0700844CA070021D1
:1005400040F233438DE80E000A460B4600F0D5F822
:1005500003B000BD70B5C1F30A5201F0004500249C
:10056000C1F3130140F2FF3341F480119A4201DAE2
:10057000002070BD40F233439A42A2F2334203DCC2
:10058000524200F052F800E090402C43F1D040423B
:1005900070BD00F0004230F000400AD0C10D01F5FE
:1005A0006071C0F3160042EA0151C20840071143CE
:1005B0007047002001467047002801DBC0F1004071
:1005C000002901DBC1F1004181427047002801DBB5
:1005D000C0F10040002901DBC1F1004188427047B1
:1005E00030B50B46014600202022012409E021FA03
:1005F00002F59D4205D303FA02F5491B04FA02F500
:100600002844151EA2F10102F1DC30BD202A04DBD2
:10061000203A00FA02F1002070479140C2F1200315
:1006200020FA03F3194390407047202A04DB203A54
:1006300021FA02F00021704721FA02F3D040C2F102
:1006400020029140084319467047202A06DBCB1749
:10065000203A41FA02F043EAE07306E041FA02F37D
:10066000D040C2F12002914008431946704700294A
:10067000A8BF7047401C490008BF20F00100704728
:1006800010B4B0FA80FC00FA0CF050EA010404BF88
:1006900010BC704749B1CCF1200421FA04F411FADE
:1006A0000CF118BF012121430843A3EB0C01CB1D22
:1006B0004FEA00614FEA102042BF002010BC704793
:1006C00000EBC35010440029A4BF10BC7047401C6D
:1006D000490008BF20F0010010BC704710B5141E7F
:1006E00073F1000408DA401C41F1000192185B41EB
:1006F0001A4301D120F0010010BD2DE9F04D9246C2
:100700009B4611B1B1FA81F202E0B0FA80F22032D8
:100710009046FFF77BFF04460F4640EA0A0041EA95
:100720000B0153465A46084313D0114653EA0100C1
:1007300019D0C8F140025046FFF777FF05460E4634
:10074000504659464246FFF761FF084305D0012055
:1007500004E020463946BDE8F08D0020054346EA16
:10076000E0762C4337430A986305E40AA0EB0800BF
:100770000022FD0A44EA47540A3002D5002001460F
:10078000E9E7010510196941DDE9084500196941EA
:10079000BDE8F04DA2E70000064C074D06E0E0681A
:1007A00040F0010394E8070098471034AC42F6D3B8
:1007B000FFF7A0FC284F0008484F0008FEE70000A4
:1007C00010B501210022084603F02EFF0348022144
:1007D0000288BDE81040084603F026BF2E00002026
:1007E000064810B502880221012003F01DFF0022F7
:1007F0000121BDE81040022003F016BF30000020A8
:1008000010B501210022084603F00EFF0348022123
:100810000288BDE81040084603F006BF2E00002005
:10082000064810B502880221012003F0FDFE0022D7
:100830000221BDE81040084603F0F6BE300000205B
:1008400010B5064C02210120228803F0EDFE22881B
:100850000121BDE81040022003F0E6BE2E0000207A
:1008600010B5064C01210846228803F0DDFE2288DF
:100870000221BDE81040084603F0D6BE2E0000203D
:1008800010B500F0EBFD00F0ABFE03F063F940F2B1
:10089000CF2140F2E73003F0F1FEBDE8104003F055
:1008A000DDBE10B500F0FEFD00F0B0FE03F071F902
:1008B00040F2CF2140F2E73003F0E0FEBDE8104007
:1008C00003F0CCBE704700002DE9F041012000F09C
:1008D000DDF800284DD0012000F0BEF801212648A7
:1008E00000F09EFC254C4FF080420128606137D01B
:1008F000606A9046401C6062104601F081FB00EB8C
:1009000080004100206940F27122504301EB001544
:10091000A560E069FFF73DFE4FF06632184BFFF728
:1009200090FD0022174BFFF773FC06460F46284642
:10093000FFF7FFFD4FF03332134BFFF710FD324648
:100940003B46FFF70CFD0022104BFFF77AFDFFF747
:1009500001FE206000214046BDE8F04101F0DABA16
:10096000206A401C002121612062918401211046EF
:10097000F2E7BDE8F081000000080140B40000206B
:10098000661271400000F03F33B7744000409F4052
:100990002DE9F041022000F079F800284DD0022026
:1009A00000F05AF80221264800F03AFC254C4FF09E
:1009B00080420128A06137D0606A9046401C606286
:1009C000104601F01DFB00EB80004100206940F261
:1009D0007122504301EB0015E560E069FFF7D9FD96
:1009E0004FF06632184BFFF72CFD0022174BFFF734
:1009F0000FFC06460F462846FFF79BFD4FF03332AB
:100A0000134BFFF7ACFC32463B46FFF7A8FC002235
:100A1000104BFFF716FDFFF79DFD6060002140467B
:100A2000BDE8F04101F076BA206A401C0021216146
:100A30002062918401211046F2E7BDE8F0810000B8
:100A400000080140B4000020661271400000F03F31
:100A500033B7744000409F4010B50446000D00D1EC
:100A60001CB9FC2102A002F0C5FF0748046010BDBC
:100A70007372635C73746D3332663130785F65789E
:100A800074692E63000000001404014070B5002555
:100A90000446012835D0022C33D0042C31D0082C48
:100AA0002FD0102C2DD0202C2BD0402C29D0802CB6
:100AB00027D0B4F5807F24D0B4F5007F21D0B4F5E1
:100AC000806F1ED0B4F5006F1BD0B4F5805F18D0D6
:100AD000B4F5005F15D0B4F5804F12D0B4F5004FD7
:100AE0000FD0B4F5803F0CD0B4F5003F09D0B4F579
:100AF000802F06D0B4F5002F03D0E52107A002F027
:100B000079FF0C4800680B492040143109682142E4
:100B100001D000B10125284670BD00007372635CEE
:100B200073746D3332663130785F657874692E6323
:100B3000000000000004014070B50446007928B1AF
:100B4000042803D06A2129A002F054FF6079082804
:100B500007D00C2805D0102803D06B2123A002F069
:100B600049FF2068010D00D118B96C211FA002F0C7
:100B700041FFA07928B1012803D06D211BA002F00C
:100B800039FF2049A07958B308682268904308606B
:100B9000081D026823689A430260207908440268AD
:100BA00023681A430260174B083318682268904381
:100BB00018601A1D10682568A84310606079102815
:100BC00005D00844016822681143016070BD1868AF
:100BD000216808431860106821680843106070BDE0
:100BE00020790844016822689143EEE77372635CE0
:100BF00073746D3332663130785F657874692E6353
:100C00000000000000040140F0B587B00646142142
:100C10006846FFF78EFA0921144804F045F9144D8F
:100C200000244FF4FA772888000404D505A9684603
:100C300004F012F906E0641CE4B2384602F082FFC8
:100C4000322CF0D3002028809DF81400132802D005
:100C5000002007B0F0BD002168464218927A725415
:100C6000491CC9B20829F8D30120F2E7630000202B
:100C7000AC00002070B586B0054614216846FFF729
:100C800058FA0921134804F027F9134E002430883C
:100C9000000404D505A9684604F0F2F806E0641CD7
:100CA000E4B20A2002F043FF322CF0D3002030805F
:100CB0009DF81400132802D0002006B070BD00215A
:100CC00068464218927A6A54491CC9B20829F8D376
:100CD0000120F2E763000020AC000020F8B50220FC
:100CE000ADF8000048208DF803002B4E03248DF84A
:100CF00002406946304600F0EFF80425ADF8005098
:100D00008DF803508DF802406946304600F0E4F853
:100D10000820ADF800008DF803508DF802406946B8
:100D2000304600F0D9F81020ADF800008DF80350DF
:100D30008DF802406946304600F0CEF82020ADF82C
:100D400000008DF803508DF802406946304600F0EF
:100D5000C3F84020ADF800008DF803508DF8024034
:100D60006946304600F0B8F88020ADF800008DF8F4
:100D700003508DF802406946304600F0ADF8A801F6
:100D8000ADF800008DF803508DF8024069463046FA
:100D900000F0A2F8F8BD000000200140F8B54FF4C3
:100DA0007070ADF8000018251D4E8DF80350032417
:100DB0008DF802406946304600F08EF83015ADF8E7
:100DC00000008DF803508DF802406946304600F06F
:100DD00083F8F014ADF8000004258DF803508DF869
:100DE00002406946304600F077F84FF43050ADF8D5
:100DF00000008DF803500B4D8DF8024069462846DF
:100E000000F06AF841F20121ADF8001048208DF899
:100E100003008DF802406946284600F05DF8F8BDF1
:100E2000000C01400020014070B50C46050010D0B8
:100E3000012D0ED0022D0CD0032D0AD0042D08D088
:100E4000052D06D0062D04D040F265211BA002F02E
:100E5000D1FD14B3012C20D0022C1ED0032C1CD0A9
:100E6000042C1AD0052C18D0062C16D0072C14D020
:100E7000082C12D0092C10D00A2C0ED00B2C0CD020
:100E80000C2C0AD00D2C08D00E2C06D00F2C04D020
:100E900040F2662109A002F0ADFDA007010F0D4848
:100EA00024F0030318440F2283688A40934383602D
:100EB00082688D402A43826070BD00007372635C5B
:100EC00073746D3332663130785F6770696F2E638B
:100ED00000000000000001402DE9F04104464648B2
:100EE00000260D46844215D04448844212D044481E
:100EF00084420FD0434884420CD04348844209D0F6
:100F00004248844206D04248844203D0B22141A0E4
:100F100002F070FDE87888B104280FD028280DD0A1
:100F200048280BD0142809D0102807D01C2805D039
:100F3000182803D0B32137A002F05CFD288818B927
:100F4000B42134A002F056FDE87800F00F07C00687
:100F50000CD5A878012807D0022805D0032803D093
:100F6000BB212CA002F046FDA878074328784FF05B
:100F70000F0C10F0FF0F4FF0010E1BD021682A88D4
:100F80000EFA06F00240824210D1B2000CFA02F3CF
:100F900021EA030307FA02F1EA781943282A02D06A
:100FA000482A02D002E0606100E02061761C082E31
:100FB000E5D321602888FF281CD96168002000F152
:100FC00008030EFA03F22B88134093420ED18300DC
:100FD0000CFA03F6B14307FA03F6EB783143282BFA
:100FE00000D16261EB78482B00D12261401C0828B7
:100FF000E5D36160BDE8F08100080140000C0140CC
:10100000001001400014014000180140001C014084
:10101000002001407372635C73746D33326631304B
:10102000785F6770696F2E63000000002DE9F04162
:101030000D46044601287DD0022C7BD0042C79D0AB
:10104000082C77D0A4F5A010103873D0A4F5A01008
:1010500030386FD0A4F5B01040386BD0A4F5B01084
:10106000C0387DD0574884427AD05748844277D0E0
:101070005648844274D05648844271D055488442C0
:101080006ED0B4F5805F6BD0B4F5EA1F68D0B4F5CC
:10109000EB1F65D0B4F5004F62D06FF40010C4426E
:1010A0005ED0A4F50010801E5AD0A4F50010001FD9
:1010B00056D0A4F50010083852D0A4F5001010380E
:1010C0004ED0B4F1201F4BD0A4F50010403847D0CB
:1010D0004148844244D04148844241D040488442FF
:1010E0003ED0404884423BD03F48844238D0B4F59B
:1010F000011F35D06FF00040C44231D0C01C844283
:101100002ED0801C84422BD0001D844228D037482A
:10111000844225D035481030844221D033483030C5
:1011200084421DD031487030844219D02F48F030AD
:10113000844200E014E013D02D48844210D02D48A2
:1011400084420DD02C4884420AD02C48844207D0D7
:101150002B48844204D040F22A212AA002F04AFC03
:1011600035B1012D04D040F22B2126A002F042FC23
:101170002A49002C01DACA6900E04A68630D1E01A1
:10118000A3B2C4F30157B340C4F30340032F05D007
:10119000E6020AD503268640B24307E022F07060DB
:1011A0004A6822F070624A6002E09A4342F070603E
:1011B00005B11843002C02DAC861BDE8F08148602F
:1011C000FBE70000000118000002180000031800EF
:1011D00000081A00000C1A00000130000002300064
:1011E00000043000001120000020200010000080CA
:1011F00000020080000400800008008000100080D1
:10120000002000807372635C73746D33326631301A
:10121000785F6770696F2E63000000000000014076
:1012200070B50546274800260C46854216D026484C
:10123000854213D02548854210D0254885420DD0DF
:10124000244885420AD02448854207D02348854255
:1012500004D04FF48F7122A002F0CCFB012C2AD0D5
:10126000022C28D0042C26D0082C24D0102C22D0DC
:10127000202C20D0402C1ED0802C1CD0B4F5807F98
:1012800019D0B4F5007F16D0B4F5806F13D0B4F543
:10129000006F10D0B4F5805F0DD0B4F5005F0AD0B8
:1012A000B4F5804F07D0B4F5004F04D040F21F11C1
:1012B0000BA002F09FFBA868204200D00126304618
:1012C00070BD000000080140000C0140001001400A
:1012D0000014014000180140001C014000200140A2
:1012E0007372635C73746D3332663130785F67702C
:1012F000696F2E630000000070B5044611480D466A
:10130000844216D01048844213D01048844210D032
:101310000F4884420DD00F4884420AD00E488442C0
:1013200007D00E48844204D040F279110CA002F09C
:1013300061FB25B94FF4BD7109A002F05BFB65614B
:1013400070BD000000080140000C01400010014089
:101350000014014000180140001C01400020014021
:101360007372635C73746D3332663130785F6770AB
:10137000696F2E630000000070B5044611480D46E9
:10138000844216D01048844213D01048844210D0B2
:101390000F4884420DD00F4884420AD00E48844240
:1013A00007D00E48844204D040F269110CA002F02C
:1013B00021FB25B94FF4B57109A002F01BFB256193
:1013C00070BD000000080140000C01400010014009
:1013D0000014014000180140001C014000200140A1
:1013E0007372635C73746D3332663130785F67702B
:1013F000696F2E630000000010B5094C01212046E2
:10140000FFF7BAFF282002F09DFB01212046FFF7DD
:1014100073FF04480068BDE81040FFF781B8000082
:10142000000C0140B400002010B5094C02212046F8
:10143000FFF7A2FF282002F085FB02212046FFF7DC
:101440005BFF04484068BDE81040FFF769B8000042
:10145000000C0140B4000020FEE7000008B50121A7
:10146000042000F03FF90121084600F03BF9282054
:101470008DF8030003208DF802000120ADF8000074
:1014800069460648FFF728FD00210846FFF7CCFC17
:1014900001210348FFF7CAFD08BD00000008014014
:1014A0000002300008B50121042000F01BF90121E1
:1014B000084600F017F928208DF8030003208DF866
:1014C00002000220ADF8000069460648FFF704FD5F
:1014D00001210020FFF7A8FC01210348FFF7A6FD2A
:1014E00008BD00000008014000023000FEE7704720
:1014F0004FF4A06000F050B870B50446C0780F25D6
:1015000028B1012803D075211FA002F073FA60787A
:10151000102803D376211CA002F06CFAA0781028C2
:1015200003D3772118A002F065FAE0780122F8B120
:1015300018480068617800F4E060C0F5E060000AD7
:10154000C0F10403C540A0789940284008432178A1
:10155000000101F1E02181F80004207800F01F0172
:101560008A404009800000F1E020C0F8002170BDF1
:10157000207800F01F018A404009800000F1E0203F
:10158000C0F8802170BD00007372635C6D69736385
:101590002E6300000CED00E010B50446B0F5E06FDE
:1015A0000FD0B4F5C06F0CD0B4F5A06F09D0B4F56E
:1015B000806F06D0B4F5407F03D0632103A002F012
:1015C00019FA054804430548046010BD7372635C52
:1015D0006D6973632E6300000000FA050CED00E0F6
:1015E00008B50121082000F07DF810208DF80300D7
:1015F00003208DF802000120ADF800006946024882
:10160000FFF76AFC08BD0000000C014008B501218D
:10161000082000F067F810208DF8030003208DF8F3
:1016200002000220ADF8000069460248FFF754FCB2
:1016300008BD0000000C01407047000070B5044672
:101640000C480D46044200D124B940F269410AA079
:1016500002F0D0F90D4E4DB1012D04D040F26A4197
:1016600005A002F0C7F9F069204301E0F069A0434A
:10167000F06170BD003601817372635C73746D3309
:1016800032663130785F7263632E6300001002406F
:1016900070B504460C480D46044200D124B940F20E
:1016A000C3410AA002F0A6F90D4E4DB1012D04D0A0
:1016B00040F2C44105A002F09DF93069204301E0E9
:1016C0003069A043306170BD003601817372635C84
:1016D00073746D3332663130785F7263632E6300EA
:1016E0000010024070B504460C480D46044200D17B
:1016F00024B940F24A410AA002F07CF90D4E4DB1E6
:10170000012D04D040F24B4105A002F073F9B069FD
:10171000204301E0B069A043B06170BD0200C0FF8A
:101720007372635C73746D3332663130785F7263E9
:10173000632E63000010024070B504460C480D464D
:10174000044200D124B940F2A4410AA002F052F9A7
:101750000D4E4DB1012D04D040F2A54105A002F07F
:1017600049F9F068204301E0F068A043F06070BDE3
:101770000200C0FF7372635C73746D333266313084
:10178000785F7263632E63000010024010B5012180
:1017900040F20910FFF7A6FF0121BDE8104002202A
:1017A000FFF74CBF30B5204A5168204B11F00C01B7
:1017B00003D0042901D0082901D0036012E0516848
:1017C000536801F470114FF0020413F4803F04EBEE
:1017D000914102D053689B0301D5154B00E0134B98
:1017E0005943016051680F2303EA1111114B5C5CEE
:1017F0000168E14041605468072505EA14241C5D36
:1018000021FA04F48460546805EAD4241B5DD940AD
:10181000C1605268032303EA9232064B1B1F9A5C95
:10182000B1FBF2F1016130BD0010024000127A00FC
:1018300000093D00040000207FB500258DF80C5004
:101840002C46009501950A211048029503F02CFBC7
:101850000F4E3088000404D503A9684603F0FCFA53
:1018600006E0641CE4B20A2002F061F9322CF0D3E5
:1018700035809DF80C000A2802D19DF8080010B1AF
:10188000002004B070BD0120FBE7000080000020B4
:10189000AC0000207FB500258DF80C502C4600953B
:1018A00001950A211048029503F016FB0F4E30886F
:1018B000000404D503A9684603F0E2FA06E0641CBC
:1018C000E4B20A2002F033F9322CF0D335809DF8CF
:1018D0000C000A2802D19DF8080010B1002004B0C5
:1018E00070BD0120FBE7000080000020AC0000205C
:1018F0002DE9FF4100258DF80C502C4600950195EF
:101900000A211248029503F0CFFA114E4FF4FA77EC
:101910003088000404D503A9684603F09DFA06E068
:10192000641CE4B2384602F00DF9322CF0D3358055
:101930009DF80C000A2802D19DF8080018B100207B
:1019400004B0BDE8F0810120FAE700005900002052
:10195000AC0000207FB500258DF80C502C4600957A
:1019600001950A211048029503F0B6FA0F4E30880F
:10197000000404D503A9684603F082FA06E0641C5B
:10198000E4B20A2002F0D3F8322CF0D335809DF86F
:101990000C000A2802D19DF8080010B1002004B004
:1019A00070BD0120FBE7000059000020AC000020C2
:1019B0002DE9F0410C4686B0214900228DF8102017
:1019C000CAC98DE8CA001F491546835C8E18521C8F
:1019D000D2B27372082AF8D3CD740420CB7C0A5C8F
:1019E000401C5A40C0B2CA741328F7D314211548BA
:1019F00003F05AFA144F00264FF4FA78388800049E
:101A000004D504A9684603F027FA06E0761CF6B26E
:101A1000404602F097F8C82EF0D33D809DF81000A4
:101A20000E284FF0000008D169460A18527A225455
:101A3000401CC0B20428F8D3012006B0BDE8F081F4
:101A4000084F00086C000020AC000020F0B50C46E8
:101A500085B0204900228DF81020CAC98DE8CA003F
:101A60001D491546835C8E18521CD2B27372082A27
:101A7000F8D3CD740420CB7C0A5C401C5A40C0B221
:101A8000CA741328F7D31421134803F025FA134F0F
:101A900000263888000404D504A9684603F0F0F94C
:101AA00006E0761CF6B20A2002F041F8322EF0D39E
:101AB0003D809DF810000E284FF0000008D16946C7
:101AC0000A18527A2254401CC0B20428F8D30120CC
:101AD00005B0F0BD184F00086C000020AC000020DD
:101AE000704700000CB50022264800920192016860
:101AF00041F4803101604FF4A063016801F40031CA
:101B000001910099491C0091019911B900999942DC
:101B1000F3D10168890333D5012101911A490A687B
:101B200042F010020A600A6822F003020A600A68A2
:101B300042F002020A6041684160416841604168C8
:101B400041F480614160416821F47C114160416849
:101B500041F4E8114160016841F080710160016861
:101B60008901FCD5416821F003014160416841F0E1
:101B7000020141604168C1F381010229FAD10CBD23
:101B800001920CBD0010024000200240704700008E
:101B90000F4810B5016841F00101016041680D4A2C
:101BA0001140416001680C4A11400160016821F454
:101BB00080210160416821F4FE0141604FF41F0162
:101BC0008160FFF78FFF05494FF00060086010BD8E
:101BD000001002400000FFF8FFFFF6FE08ED00E0F5
:101BE00010B50121880700F025F902480169491C58
:101BF000016110BDB40000202DE9F041DFF8F8804C
:101C00000121404600F016F93C4C206A401C20623D
:101C100001281BD13A4D08212846FFF701FBE0724D
:101C200029152846FFF7FCFA2073E9142846FFF728
:101C3000F7FA607310212846FFF7F2FAA0738021AB
:101C40002846FFF7EDFAE07300202062606B012563
:101C500002260327012804D002284AD1206BE8B1CC
:101C600021E0206B20B9FEF7CBFD207B012803D0BB
:101C7000206B012803D007E001F042FF256302F04A
:101C8000EBF8607B012805D0206B022831D1FEF7EC
:101C9000D7FD19E001F034FF2663F8E7FEF7C0FD39
:101CA000A07B012803D0206B012803D007E001F0BE
:101CB00027FF256302F0D0F8E07A012815D0206BC9
:101CC000022816D1FEF7CCFDE07A217B0843617B28
:101CD0000843A17B08430CD101F012FF4046276363
:101CE000BDE8F041002100F015B901F009FF2663BD
:101CF000E8E7BDE8F0810000000400401400002087
:101D0000002001403EB542F20F70ADF804004720BC
:101D1000ADF8000000200B4CADF80600ADF8020055
:101D20006946204600F0B4FF0121204600F082F809
:101D300001221146204600F0C9F90021204600F09A
:101D4000E9F83EBD0004004070B5044624480D4645
:101D5000844234D0B4F1804F31D0224884422ED016
:101D6000214884422BD02148844228D020488442F4
:101D700025D02048844222D01F4884421FD01F48CB
:101D800084421CD01E48844219D01E48844216D07A
:101D90001D48844213D01D48844210D01C48844200
:101DA0000DD01C4884420AD01B48844207D01B48EF
:101DB000844204D040F2845119A001F01BFE55B1B9
:101DC000012D04D040F2855115A001F013FE2088AA
:101DD00040F0800002E0208820F08000208070BD6C
:101DE000002C01400004004000080040000C0040AE
:101DF000001000400014004000340140004C01403D
:101E0000005001400054014000180040001C0040F8
:101E100000200040004001400044014000480140D3
:101E20007372635C73746D3332663130785F7469DA
:101E30006D2E630070B5044621480D46844234D0AF
:101E4000B4F1804F31D01F4884422ED01E488442C6
:101E50002BD01E48844228D01D48844225D01D48DE
:101E6000844222D01C4884421FD01C4884421CD08B
:101E70001B48844219D01B48844216D01A48844219
:101E800013D01A48844210D0194884420DD0194802
:101E900084420AD01848844207D01848844204D0AB
:101EA00040F6772116A001F0A5FD280A00D125B93A
:101EB00040F6782112A001F09DFDE843208270BD1C
:101EC000002C01400004004000080040000C0040CD
:101ED000001000400014004000340140004C01405C
:101EE000005001400054014000180040001C004018
:101EF00000200040004001400044014000480140F3
:101F00007372635C73746D3332663130785F7469F9
:101F10006D2E630070B5044624480D46844234D0CB
:101F2000B4F1804F31D0224884422ED021488442DF
:101F30002BD02148844228D02048844225D02048F4
:101F4000844222D01F4884421FD01F4884421CD0A4
:101F50001E48844219D01E48844216D01D4884422F
:101F600013D01D48844210D01C4884420DD01C4818
:101F700084420AD01B48844207D01B48844204D0C4
:101F800040F2293119A001F035FD55B1012D04D0E1
:101F900040F22A3115A001F02DFD208840F001000B
:101FA00002E0208820F00100208070BD002C01405C
:101FB0000004004000080040000C004000100040F9
:101FC0000014004000340140004C0140005001402A
:101FD0000054014000180040001C00400020004058
:101FE0000040014000440140004801407372635CBE
:101FF00073746D3332663130785F74696D2E6300AF
:1020000010B504461C48844234D0B4F1804F31D01E
:102010001A4884422ED01A4884422BD01948844250
:1020200028D01948844225D01848844222D0184824
:1020300084421FD0174884421CD01748844219D0CC
:102040001648844216D01648844213D0154884425C
:1020500010D0154884420DD0144884420AD0144848
:10206000844207D01348844204D04FF41D6112A06B
:1020700001F0C0FCA08C10BD002C01400004004009
:1020800000080040000C0040001000400014004018
:1020900000340140004C0140005001400054014018
:1020A00000180040001C004000200040004001409B
:1020B00000440140004801407372635C73746D33E7
:1020C00032663130785F74696D2E630070B50446F6
:1020D000284816460D46844234D0B4F1804F31D0A2
:1020E000254884422ED0254884422BD0244884425F
:1020F00028D02448844225D02348844222D0234833
:1021000084421FD0224884421CD02248844219D0E5
:102110002148844216D02148844213D0204884426A
:1021200010D0204884420DD01F4884420AD01F4856
:10213000844207D01E48844204D040F26B311DA077
:1021400001F058FC280A00D125B94FF45B7119A0A1
:1021500001F050FC4EB1012E04D040F26D3115A0BB
:1021600001F048FCA089284301E0A089A843A08190
:1021700070BD0000002C0140000400400008004039
:10218000000C0040001000400014004000340140EA
:10219000004C014000500140005401400018004034
:1021A000001C00400020004000400140004401406D
:1021B000004801407372635C73746D333266313072
:1021C000785F74696D2E63002DE9F05FDFF864912C
:1021D000DFF864A1DFF864B10D46044648452CD011
:1021E000B4F1804F29D05648844226D055488442C5
:1021F00023D05548844220D054451ED053488442B1
:102200001BD05348844218D05248844215D05248BB
:10221000844212D0514884420FD0514884420CD09D
:102220005C450AD04F48844207D04F48844204D0CE
:102230004FF48E714DA001F0DDFB288870B110289D
:102240000CD020280AD0302808D0602806D070286A
:1022500004D040F21D1145A001F0CCFB688830B1DC
:10226000012804D04FF48F7140A001F0C3FB2889EE
:1022700030B1022804D040F21F113CA001F0BAFB9B
:10228000208C20F001002084218CA788208B2A88B4
:1022900020F0730042EA0008288921F002016E88CC
:1022A000084306434C4509D0544507D05C4505D04A
:1022B0002C48844202D02C48844233D1A88830B1C3
:1022C000042804D04FF49E7128A001F093FB688984
:1022D00030B1082804D040F23D1124A001F08AFB5F
:1022E000E889B0F5007F05D020B14FF49F711FA0A1
:1022F00001F080FBA889B0F5807F05D020B140F2C5
:102300003F111AA001F076FB26F008016889AE881B
:10231000084320F00400064327F44071A889EF89A0
:1023200008430743A780A4F81880E888A08626847D
:10233000BDE8F09F002C0140003401400040014006
:102340000004004000080040000C0040004C014028
:10235000005001400054014000180040001C0040A3
:102360000020004000440140004801407372635C5B
:1023700073746D3332663130785F74696D2E63002B
:1023800070B5044620480D4684422ED0B4F1804FEB
:102390002BD01E48844228D01D48844225D01D4899
:1023A000844222D01C4884421FD01C4884421CD046
:1023B0001B48844219D01B48844216D01A488442D4
:1023C00013D01A48844210D0194884420DD01948BD
:1023D00084420AD01848844207D01848844204D066
:1023E00040F2E95116A001F005FB082D05D025B1FA
:1023F00040F2EA5112A001F0FDFA208B20F0080013
:102400002843208370BD0000002C014000040040E0
:1024100000080040000C004000340140004C014026
:10242000005001400054014000180040001C0040D2
:1024300000200040004001400044014000480140AD
:102440007372635C73746D3332663130785F7469B4
:102450006D2E63002DE9F05FDFF850A1DFF850B179
:102460000D46044650451BD0B4F1804F18D051485A
:10247000844215D05048844212D0504884420FD034
:102480005C450DD04E4884420AD04E48844207D065
:102490004D48844204D040F26F114CA001F0AAFADA
:1024A000288870B110280CD020280AD0302808D0F5
:1024B000602806D0702804D04FF4B87143A001F012
:1024C00099FA688830B1012804D040F271113FA018
:1024D00001F090FA288930B1022804D04FF4B97184
:1024E0003AA001F087FA208C20F010002084228C82
:1024F000A788208B2B884FF6FF7920F4E64109EA64
:10250000032343EA0108298922F0200209EA011184
:1025100011436A8809EA02160E43544501D05C450E
:102520003BD1A88830B1042804D040F28F1127A0F5
:1025300001F060FA688930B1082804D04FF4C871FE
:1025400022A001F057FAE889B0F5007F05D020B14C
:1025500040F291111DA001F04DFAA889B0F5807FDD
:1025600005D020B14FF4C97118A001F043FA698970
:1025700026F0800209EA01111143AA8821F04001E6
:1025800009EA02160E43A98927F4406209EA81018B
:102590001143EA8909EA82070F43A780A4F818804B
:1025A000E88820872684BDE8F09F0000002C0140C9
:1025B000003401400004004000080040000C0040CE
:1025C000004C014000180040004001407372635C01
:1025D00073746D3332663130785F74696D2E6300C9
:1025E00070B5044619480D4684421CD0B4F1804FA2
:1025F00019D01748844216D01648844213D0164882
:10260000844210D0154884420DD0154884420AD027
:102610001448844207D01448844204D040F2026136
:1026200012A001F0E7F9082D05D025B140F20361B1
:102630000EA001F0DFF9208B4FF6FF7120F400604F
:1026400001EA05210143218370BD0000002C0140F7
:102650000004004000080040000C0040003401402D
:10266000004C014000180040004001407372635C60
:1026700073746D3332663130785F74696D2E630028
:102680002DE9F05FDFF838A1DFF838B10D460446D8
:10269000504512D0B4F1804F0FD04B4884420CD03B
:1026A0004A48844209D04A48844206D05C4504D056
:1026B00040F2C11147A001F09DF9288870B110289F
:1026C0000CD020280AD0302808D0602806D07028E6
:1026D00004D04FF4E1713FA001F08CF9688830B16B
:1026E000012804D040F2C3113AA001F083F92889EF
:1026F00030B1022804D04FF4E27136A001F07AF92B
:10270000208C20F480702084208CA788A18B2A88BC
:1027100021F0730142EA010820F4007128894FF684
:10272000FF7909EA00200843698809EA012606437F
:10273000544501D05C453BD1A88830B1042804D071
:102740004FF4F07123A001F055F9688930B10828E1
:1027500004D040F2E1111FA001F04CF9E889B0F576
:10276000007F05D020B14FF4F1711AA001F042F9B9
:10277000A889B0F5807F05D020B140F2E31115A003
:1027800001F038F9698926F4006209EA0121114350
:10279000AA8821F4806109EA02260E43A98927F458
:1027A000405209EA01111143EA8909EA02170F436D
:1027B000A780A4F81C80E888A0872684BDE8F09F45
:1027C000002C01400034014000040040000800409B
:1027D000000C00407372635C73746D333266313089
:1027E000785F74696D2E630070B5044612480D461B
:1027F000844213D0B4F1804F10D0104884420DD0E1
:102800000F4884420AD00F48844207D00E488442C1
:1028100004D040F21A610DA001F0ECF8082D05D0AB
:1028200025B140F21B6109A001F0E4F8A08B20F073
:1028300008002843A08370BD002C01400004004024
:1028400000080040000C0040003401407372635CDB
:1028500073746D3332663130785F74696D2E630046
:102860002DE9F05FDFF8E8A0DFF8E8B00D46044698
:10287000504512D0B4F1804F0FD0374884420CD06D
:102880003648844209D03648844206D05C4504D09C
:102890004FF4047133A001F0ADF8288870B110280E
:1028A0000CD020280AD0302808D0602806D0702804
:1028B00004D040F211212BA001F09CF8688830B1BF
:1028C000012804D040F2122126A001F093F82889B3
:1028D00030B1022804D040F2132122A001F08AF87E
:1028E000208C20F480502084218CA688A08B2B88FB
:1028F0004FF6FF7920F4E64209EA0327174321F453
:102900000052298909EA013111436A88544509EACC
:10291000023040EA010801D05C450FD1A889B0F52A
:10292000807F05D020B14FF40C710EA001F062F849
:10293000AA8926F4804009EA82160643A680A78366
:10294000E888A4F84000A4F82080BDE8F09F0000CB
:10295000002C014000340140000400400008004009
:10296000000C00407372635C73746D3332663130F7
:10297000785F74696D2E630070B5044614480D4687
:10298000844213D0B4F1804F10D0124884420DD04D
:10299000114884420AD01148844207D0104884422A
:1029A00004D040F232610FA001F024F8082D05D0C8
:1029B00025B140F233610BA001F01CF8A08B4FF65B
:1029C000FF7120F4006001EA05210143A18370BD7D
:1029D000002C01400004004000080040000C0040B2
:1029E000003401407372635C73746D33326631304E
:1029F000785F74696D2E630030B587B001210420C3
:102A0000FEF71CFE6320ADF814004720ADF810005F
:102A100000241E4DADF81640ADF8124004A928461A
:102A200000F036F96020ADF800000120ADF802009A
:102A3000ADF80640ADF8084069462846FFF7C4FBEC
:102A400008212846FFF79CFC69462846FFF702FD4F
:102A500008212846FFF7C4FD69462846FFF710FE07
:102A600008212846FFF7C0FE69462846FFF7F8FE12
:102A700008212846FFF780FF01212846FFF764F967
:102A800001212846FFF746FA07B030BD0008004094
:102A900070B504461A480D4684422ED0B4F1804FDA
:102AA0002BD01848844228D01748844225D0174894
:102AB000844222D0164884421FD0164884421CD03B
:102AC0001548844219D01548844216D014488442CF
:102AD00013D01448844210D0134884420DD01348B8
:102AE00084420AD01248844207D01248844204D05B
:102AF00040F6F70110A000F07DFFA58670BD000034
:102B0000002C01400004004000080040000C004080
:102B100000340140004C014000500140005401408D
:102B200000180040001C0040002000400040014010
:102B300000440140004801407372635C73746D335C
:102B400032663130785F74696D2E630070B504466B
:102B500011480D4684421CD0B4F1804F19D00F4863
:102B6000844216D00E48844213D00E48844210D0BE
:102B70000D4884420DD00D4884420AD00C4884424E
:102B800007D00C48844204D040F605110AA000F09A
:102B900031FF258770BD0000002C0140000400407B
:102BA00000080040000C004000340140004C01408F
:102BB00000180040004001407372635C73746D3311
:102BC00032663130785F74696D2E630070B50446EB
:102BD0000C480D46844213D0B4F1804F10D00A48FF
:102BE00084420DD0094884420AD00948844207D063
:102BF0000848844204D040F6131107A000F0FAFE02
:102C0000A58770BD002C0140000400400008004072
:102C1000000C0040003401407372635C73746D33C8
:102C200032663130785F74696D2E630070B504468A
:102C30000D480D46844213D0B4F1804F10D00B489C
:102C400084420DD00A4884420AD00A48844207D000
:102C50000948844204D040F6211108A000F0CAFEC1
:102C6000A4F8405070BD0000002C0140000400405A
:102C700000080040000C0040003401407372635CA7
:102C800073746D3332663130785F74696D2E630012
:102C90002DE9F05F444FDFF81481DFF81491DFF87D
:102CA00014A1DFF814B1454E0D460446B8422ED0AB
:102CB000B4F1804F2BD0444529D04C4527D0544502
:102CC00025D05C4523D03E48844220D0B4421ED05B
:102CD0003C4884421BD03C48844218D03B48844244
:102CE00015D03B48844212D03A4884420FD03A482B
:102CF00084420CD03948844209D03948844206D0F5
:102D00003848844203D0E72137A000F073FE68887A
:102D100058B1102809D0202807D0402805D06028B5
:102D200003D0E82130A000F065FEE88848B1B0F596
:102D3000807F06D0B0F5007F03D0E9212AA000F003
:102D400059FE2088BC420AD0B44208D0B4F1804F6A
:102D500005D0444503D04C4501D0544503D120F063
:102D60007001688808435C4506D015498C4203D041
:102D700020F44071E88808432080A888A08528882E
:102D80002085BC420AD0B44208D01448844205D001
:102D90001348844202D01348844201D1287A208605
:102DA0000120A082BDE8F09F002C014000040040FB
:102DB00000080040000C00400010004000340140BA
:102DC00000140040004C01400050014000540140FC
:102DD00000180040001C004000200040004001405E
:102DE00000440140004801407372635C73746D33AA
:102DF00032663130785F74696D2E630010B5164C01
:102E000040F22551204600F061FA002823D02046E8
:102E100000F034FC124BC0B2104C5988AA280FD0D5
:102E200049B15988CAB2A0541878C01C824202D154
:102E300041F4004058805888C1B2022907D008E008
:102E40000029EED14FF4804159802070E9E7A17844
:102E50001970401C588010BD00380140DC00002073
:102E6000AA00002010B5164C40F22551204600F073
:102E70002DFA002823D0204600F000FC124BC0B2EF
:102E8000104C5988AA280FD049B15988CAB2A05409
:102E90001878C01C824202D141F400405880588802
:102EA000C1B2022907D008E00029EED14FF48041D9
:102EB00059802070E9E7A1781970401C588010BD36
:102EC00000440040DC000020AA0000201FB500F0F4
:102ED00061F801F01FFB4FF4164000900020ADF8A0
:102EE0000400ADF80600ADF80800ADF80C000C20A9
:102EF0000A4CADF80A006946204600F0EDFA0122BE
:102F000040F22551204600F067FA0121204600F0EA
:102F1000E9F84021204600F041F81FBD004800407C
:102F200070B51A4C40F225552946204600F0CEF9DE
:102F300090B12946204600F07BF8204600F09EFB29
:102F4000C1B2134A01205329117202D0542903D16E
:102F500001E0107000E0507040F2277529462046CD
:102F600000F0B4F918B12946204600F061F840F2AB
:102F700026652946204600F0A9F9002805D02946F3
:102F80002046BDE8704000F053B870BD00480040D6
:102F90001400002001218804FEF750BB2DE9F04108
:102FA000184E194FDFF864800D460446B0420ED02B
:102FB000BC420CD044450AD01548844207D015487D
:102FC000844204D040F29E3113A000F013FD35F48A
:102FD000587000D125B940F29F310FA000F00AFDD2
:102FE000A8050AD5B44208D0BC4206D0444504D056
:102FF00040F2A33108A000F0FDFCE8432080BDE8CA
:10300000F0810000003801400044004000480040CA
:10301000004C0040005000407372635C73746D3369
:1030200032663130785F75736172742E6300000010
:103030002DE9F047204EDFF88480DFF884900D46BC
:103040000446B0420ED044450CD04C450AD01D4831
:10305000844207D01C48844204D040F20A411BA09D
:1030600000F0C8FCA5F5C06040F66A1726380ED0FF
:10307000A5F5A06025380AD0A5F50060463806D031
:10308000BD4204D040F20B4110A000F0B3FCBD42A1
:103090000AD1B44208D0444506D04C4504D040F291
:1030A0000F410AA000F0A6FC290A01208840C04375
:1030B0002080BDE8F0870000003801400044004057
:1030C00000480040004C0040005000407372635CB8
:1030D00073746D3332663130785F75736172742E3C
:1030E0006300000070B5044612480D46844210D0BB
:1030F000114884420DD0114884420AD010488442BD
:1031000007D01048844204D04FF4B1710EA000F0F3
:1031100071FC55B1012D04D040F263110AA000F0FA
:1031200069FCA08940F4005002E0A08920F400501E
:10313000A08170BD003801400044004000480040BC
:10314000004C0040005000407372635C73746D3338
:1031500032663130785F75736172742E63000000DF
:103160002DE9F047204D214E214FDFF88880DFF810
:1031700088900446A8420BD0B44209D0BC4207D084
:10318000444505D04C4503D085211CA000F032FCFD
:10319000AC420AD101218C032046FEF7CDFA20462D
:1031A000BDE8F0470021FEF7C7BAB44202D10121C1
:1031B0004C040DE0BC4202D101218C0408E04445DE
:1031C00002D10121CC0403E04C450AD101210C05B8
:1031D0002046FEF75DFA2046BDE8F0470021FEF7E5
:1031E00057BABDE8F08700000038014000440040B5
:1031F00000480040004C0040005000407372635C87
:1032000073746D3332663130785F75736172742E0A
:10321000630000002DE9F047214F0026DFF884808D
:10322000DFF884900C460546B8420ED045450CD0D8
:103230004D450AD01D48854207D01D48854204D01F
:1032400040F26E311BA000F0D5FB012C21D0802C68
:103250001FD0402C1DD0202C1BD0102C19D0B4F521
:10326000807F16D0B4F5007F08D0082C11D0042C34
:103270000FD0022C0DD040F26F3107E0BD4208D0D4
:10328000454506D04D4504D040F2733109A000F009
:10329000B1FB2888204200D001263046BDE8F087E7
:1032A000003801400044004000480040004C00400D
:1032B000005000407372635C73746D33326631305A
:1032C000785F75736172742E630000002DE9F0471A
:1032D000DFF8D8800026DFF8D890DFF8D8A00C46B9
:1032E000054640450ED04D450CD055450AD03248D4
:1032F000854207D03148854204D040F2C13130A028
:1033000000F078FB282C32D0A4F5E06040F66A1774
:1033100027381FD0A4F5C06026381BD0A4F5A060C4
:10332000253817D0A4F58060243813D0A4F50060A8
:1033300046380FD0BC420DD0B4F5587F17D0B4F545
:10334000187F14D0B4F5B07F11D040F2C2311CA068
:1033500000F050FBBC420AD1454508D04D4506D08F
:10336000554504D040F2C63115A000F043FB04F0EF
:103370001F020123C4F3421103FA02F0012910D005
:10338000022910D0A98A4FEA142203FA02F32A88EC
:10339000014202EA030201D002B101263046BDE833
:1033A000F087A989EFE7298AEDE70000003801409E
:1033B0000044004000480040004C004000500040E5
:1033C0007372635C73746D3332663130785F75731A
:1033D0006172742E630000002DE9F047DFF8CC80A5
:1033E000DFF8CC90DFF8CCA016460C4605464045E9
:1033F0000ED04D450CD055450AD02F48854207D0F8
:103400002E48854204D040F289112DA000F0F2FA36
:1034100040F66A17282C1CD0A4F5E060273818D095
:10342000A4F5C060263814D0A4F5A060253810D0CB
:10343000A4F5806024380CD0A4F50060463808D08C
:10344000BC4206D0602C04D04FF4C5711CA000F023
:10345000D1FA36B1012E04D040F28B1118A000F041
:10346000C9FABC420AD1454508D04D4506D055455C
:1034700004D040F28F1112A000F0BCFA04F01F0239
:103480000120C4F342119040012906D0022906D040
:10349000143529682EB1014304E00C35F9E71035E5
:1034A000F7E781432960BDE8F0870000003801405C
:1034B0000044004000480040004C004000500040E4
:1034C0007372635C73746D3332663130785F757319
:1034D0006172742E630000002DE9F0435B4E5C4F77
:1034E000DFF8708185B00D460446B0420DD0BC4275
:1034F0000BD0444509D05848844206D057488442EE
:1035000003D0B82156A000F075FA28685A49401E29
:10351000884203D3B92152A000F06CFAA8884FF476
:10352000805928B1484503D0BA214DA000F062FA75
:10353000E88858B1484509D0B0F5005F06D0B0F52D
:10354000405F03D0BB2146A000F054FA288948B15F
:10355000B0F5806F06D0B0F5C06F03D0BC2140A09D
:1035600000F048FA688930F00C0100D118B9BD218B
:103570003BA000F03FFAA889C0B1B0F5807F0BD026
:10358000B0F5007F08D0B0F5407F05D0BE2134A053
:1035900000F030FAA88948B1B44207D0BC4205D047
:1035A000444503D0C2212EA000F024FA208A4CF614
:1035B000FF710840E98801432182A1894EF6F3108A
:1035C0000140A8882A8910436A890A431043A081D0
:1035D000A08A4FF6FF410840A9890143A1826846AD
:1035E000FEF7E0F8B44201D1039800E00298A18907
:1035F000090400EBC00101EB0010296801D5490066
:1036000000E08900B0FBF1F06422B0FBF2F10901A7
:103610000B096FF018056B4300EB8300A3891D04B1
:103620004FF0320306D503EBC000B0FBF2F000F020
:10363000070005E003EB0010B0FBF2F000F00F0014
:103640000843208105B0BDE8F08300000038014048
:103650000044004000480040004C00400050004042
:103660007372635C73746D3332663130785F757377
:103670006172742E6300000020AA440010B5044655
:103680000B48844210D00B4884420DD00A48844233
:103690000AD00A48844207D00948844204D04FF433
:1036A000197108A000F0A6F9A088C0F3080010BDA9
:1036B000003801400044004000480040004C0040F9
:1036C000005000407372635C73746D333266313046
:1036D000785F75736172742E6300000070B50446E4
:1036E00010480D46844210D00F4884420DD00F4838
:1036F00084420AD00E48844207D00E48844204D047
:1037000040F253210CA000F075F9B5F5007F04D309
:103710004FF4157108A000F06DF9C5F30800A08002
:1037200070BD0000003801400044004000480040E7
:10373000004C0040005000407372635C73746D3342
:1037400032663130785F75736172742E63000000E9
:10375000FEE700000FB4054B10B503A9044A029818
:1037600000F018F810BC5DF814FB0000D53B000811
:10377000B000002002E008C8121F08C1002AFAD1D8
:1037800070477047002001E001C1121F002AFBD1E1
:10379000704700002DE9FF4F8BB09A460F46054653
:1037A000002606E025280BD052460D9990476D1C47
:1037B000761C28780028F5D10FB03046BDE8F08F90
:1037C0000024A0460122604900E0044315F8013FAF
:1037D000203B02FA03F00842F7D128782E2817D1AF
:1037E00015F8010F44F004042A280ED06FF02F02C0
:1037F0002878A0F1300109290AD808EB880102EBEA
:10380000410100EB01086D1CF2E757F8048B6D1CB9
:10381000287869283ED006DC0028CDD063280BD05C
:10382000642804D136E0732810D075284BD0524656
:103830000D999047761C85E017F8040B8DF8000071
:1038400000208DF80100E946012003E057F8049BB1
:103850004FF0FF3061074FF0000401D40AE0641C10
:1038600044450DDA8442FADB19F804100029F6D138
:1038700006E0641C8442FCDB19F804100029F8D12E
:10388000264404E019F8010B52460D999047641E36
:10389000F8D257E001CF4FF00A0B002802DA40427D
:1038A0002D2102E0210504D52B218DF824100121C2
:1038B00003E0E10705D02021F7E70DF12009089189
:1038C0000CE00021F9E701CF4FF00A0BF9E7594668
:1038D000FCF786FE01F1300209F8012D0028F6D12F
:1038E000ADEB090000F1200B600701D44FF0010897
:1038F000D84502DDA8EB0B0000E000208046002444
:1039000006E009A85246005D0D999047641C761C9C
:1039100008988442F5DB04E0302052460D99904728
:10392000761CB8F10001A8F10108F5DC05E019F8F2
:10393000010B52460D999047761CBBF10001ABF18B
:10394000010BF4DC6D1C34E70928010070B5124C42
:1039500012480025E178012908D0022908D0204624
:103960000329007913D0042913D013E0462100E085
:103970004721FFF7B3FE02E00A2000F0D8F8607894
:103980000028F9D065706079401C607102E0A07574
:1039900000E0E075E57070BD1400002000480040B4
:1039A00070B5124C12480025E178072908D0082983
:1039B00008D020460529007913D0062913D013E03A
:1039C000462100E04721FFF789FE02E00A2000F0CF
:1039D000AEF860780028F9D065706079401C60719D
:1039E00002E0A07500E0E075E57070BD14000020F5
:1039F000004800400A46014601A0FFF7ABFEFEE783
:103A000057726F6E6720706172616D657465727355
:103A10002076616C75653A2066696C652025732097
:103A20006F6E206C696E652025640D0A0000000031
:103A30002DE9F047304C4FF00008054684F80F8020
:103A40004FF4FA794FF480772C4E3DE000F0F4F912
:103A500039463046FDF7E4FBE0734FF480613046B1
:103A6000FDF7DEFB207310213046FDF7D9FBA07374
:103A7000E16B91B9217B012902D061B101D00CE049
:103A800010B1012834D008E000220121022000F00A
:103A9000CBFD282224E001281CD0012000F047F8AB
:103AA000E07B0028D2D000F0C7F939463046FDF758
:103AB000B7FBE073052000F03AF8E07B0028F2D174
:103AC0006D1EEDB2C4F83C80002DE9D1BDE8F04791
:103AD00000F016B828220121022000F0A5FD0022E6
:103AE0000121084600F0A0FD484600F02BF8D7E77A
:103AF0000120E063D4E70000140000200020014012
:103B000010B500220121022000F08EFD01210022CB
:103B1000084600F089FD02210022084600F084FDDD
:103B200000220221BDE81040012000F07DBD10B54B
:103B300003464FF47A7402E0204600F003F85B1E5F
:103B4000FAD210BD03E00721491EC9B2FCD2401EC3
:103B5000F9D270473EB500258DF80450102001249D
:103B60008DF8050000948DF806406846FCF7E4FFE8
:103B70004FF4E060FDF710FD06208DF808008DF889
:103B800009508DF80A508DF80B4002A8FDF7B4FCDF
:103B90003EBD3EB50220002400908DF80440102068
:103BA0008DF8050001258DF806506846FCF7C4FF26
:103BB0004FF4E060FDF7F0FC07208DF808008DF869
:103BC00009408DF80A408DF80B5002A8FDF794FCCF
:103BD0003EBD000070B5074D044640212846FFF762
:103BE00019FB0028F9D0E1B22846FFF777FD2046FF
:103BF00070BD0000004400402DE9F041022466023F
:103C0000124F134D09E000F059FD31463846FDF7DB
:103C100007FB28730A20FFF78AFF287B0028F2D0D1
:103C200000F04CFD31463846FDF7FAFA28730A20B9
:103C3000FFF77DFF287B0028F2D1641E14F0FF04FB
:103C4000EBD1BDE8F041FFF75BBF00000020014071
:103C50001400002070B5124C00204FF40055607421
:103C6000104E00F0E9F829463046FDF7D9FA6074A5
:103C70000A20FFF75CFF607C0028F2D000F0DCF83F
:103C800029463046FDF7CCFA60740A20FFF74FFF53
:103C9000607C0028F2D1BDE87040FFF731BF000022
:103CA00014000020002001402DE9F0412E4C002797
:103CB0000546E7734FF4FA782C4E3CE000F0CCF860
:103CC00080213046FDF7ACFAE0734FF48061304656
:103CD000FDF7A6FA207310213046FDF7A1FAA07374
:103CE000A16B91B9217B012902D061B101D00CE017
:103CF00010B1012833D008E002210022084600F06C
:103D000093FC282223E001281BD00120FFF70FFF9E
:103D1000E07B0028D2D000F09FF880213046FDF7EC
:103D20007FFAE0730120FFF702FFE07B0028F2D169
:103D30006D1EEDB2A763002DEAD1BDE8F041FFF79B
:103D4000DFBE02212822084600F06EFC002202217C
:103D5000012000F069FC4046FFF7F4FED8E701209F
:103D6000A06300F079F8D3E71400002000200140A0
:103D70002DE9F0412E4C00270546E7734FF4FA7801
:103D80002C4E3CE000F068F820213046FDF748FA60
:103D9000E0734FF480613046FDF742FA2073102142
:103DA0003046FDF73DFAA073A16B91B9217B012943
:103DB00002D061B101D00CE010B1012833D008E08D
:103DC00002210022084600F02FFC282223E00128CF
:103DD0001BD00520FFF7ABFEE07B0028D2D000F01F
:103DE0003BF820213046FDF71BFAE0730520FFF772
:103DF0009EFEE07B0028F2D16D1EEDB2A763002D80
:103E0000EAD1BDE8F041FFF77BBE02212822084637
:103E100000F00AFC00220221012000F005FC4046CF
:103E2000FFF790FED8E70120A06300F015F8D3E774
:103E3000140000200020014010B5064C0121084666
:103E4000228800F0F1FB22880121BDE81040022009
:103E500000F0EABB2E000020074810B502880221BE
:103E6000012000F0E1FB054802210288BDE8104076
:103E7000084600F0D9BB0000300000202E000020D2
:103E80002DE9F04105464FF0FF36FDF7B5FA04463F
:103E90003C20FFF74CFEFDF7AFFA07463C20FFF74A
:103EA00046FE39462046FCF74FF93146FCF7A4F9A7
:103EB000044601462846FCF77FFB1CD215E000F0C3
:103EC000FDFBFDF799FA04463C20FFF730FEFDF7B5
:103ED00093FA07463C20FFF72AFE39462046FCF7B6
:103EE00033F93146FCF788F9044621462846FCF7A9
:103EF00063FB29D2E3E721462846FCF767FB23D280
:103F00001DE001212822084600F08EFB2822012115
:103F1000022000F089FBFDF76FFA04463C20FFF712
:103F200006FEFDF769FA07463C20FFF700FE39461A
:103F30002046FCF709F93146FCF75EF904462146B4
:103F40002846FCF743FBDCD3BDE8F041FFF7D8BDC2
:103F50002DE9F05FFDF71AFCFCF720FFFCF790FC61
:103F6000FCF79FFCFCF7BAFEFEF7B0FFFDF7CAFEB8
:103F7000FEF742FD00F0C2FADFF8F483FD4DFE4C7F
:103F800006E061214046FFF7A9FB0120FFF7CFFDC6
:103F900020780028F5D04FF4007631462846FDF70A
:103FA0003FF9012812D00121AA462846FDF738F929
:103FB00001264FF4FA794FF0FF3B002550B1A57070
:103FC000EE48FFF75DFF012020714CE10120FFF773
:103FD000AEFDE2E7A670E948FFF752FF012020712D
:103FE00002E000F0FBFAE070E0780028F9D0FFF77B
:103FF000ADFCE348FFF744FF00F0D0FB0220207146
:104000000120FFF751FE02E000F0B8FAE070E0781E
:104010000028F9D0C0B2264601280BD0214602283C
:1040200004D0032835D0042836D037E0422140465A
:10403000FFF754FB3079082802D200F04FFC01E072
:1040400000F070FCCD48FFF71BFF02E00120FFF7F6
:104050006EFD707810B9F0780228F7D07570F0789E
:10406000012804D045214046FFF738FB04E04321F6
:10407000F9E70120FFF75BFD70780028F9D0757033
:104080007079401C7071BE48FFF7FAFE00F086FBA5
:1040900004E00879A07501E00879E0753079401CEA
:1040A000C0B23071F5700828AAD9A07DA071E07D5A
:1040B000E07100F037FDC4F8409000F029FB206C5F
:1040C000401E2064F9D1AF4E606A4FF0057730444E
:1040D000B84216D900F01CFBFDF7A6F9A0623C20FF
:1040E000FFF725FDFDF7A0F9E0623C20FFF71FFD7B
:1040F000D4E90A01FCF728F85946FCF77DF860621C
:10410000E5E7FDF791F914E000F002FB3C20FFF732
:104110000EFDFDF789F9A0623C20FFF708FDFDF7D1
:1041200083F90146E062A06AFCF70EF85946FCF7F5
:1041300063F860623044B842E6D8FFF7E1FC5021F2
:1041400047464046FFF7CAFA02E00A20FFF7EFFCB5
:1041500060780028F9D065704846FFF7E8FCFFF763
:1041600079FD00F06BFBA07908280CD28448FFF79A
:1041700087FE00F013FBA079C0F10800C0B2FFF782
:1041800057FC00F0ABFBDFF8F4814046FFF778FE08
:1041900043213846FFF7A2FA02E00A20FFF7C7FCE6
:1041A00060780028F9D0764E65703046FFF768FEDB
:1041B00000F0F4FAA079E179884204D9401AC0B23B
:1041C000FFF736FC03E0081AC0B2FFF76DFD00F000
:1041D00085FB4046FFF754FE45213846FFF77EFA3F
:1041E00002E00A20FFF7A3FC60780028F9D0657090
:1041F0004846FFF79CFC3046FFF742FE00F0CEFA3F
:10420000E079C0F10800C0B2FFF74EFD00F03EFBC0
:10421000FFF7F2FC00F038FC0120607256460503FF
:1042200029463046FCF7FCFF607240B91420FFF7C6
:1042300089FC29463046FCF7F3FF607228B100F094
:1042400067FA607A0028EBD106E0FFF759FC03E03B
:1042500044213846FFF742FA61780029F8D042E15C
:1042600000F0BCF9E070E0780028F9D0FFF798FB87
:104270004348FFF705FE00F0B9FA02202071012043
:10428000FFF776FD02E000F079F9E070E0780028B1
:10429000F9D0C0B2264607280BD02146082804D002
:1042A000052835D0062836D037E042214046FFF7B2
:1042B00015FA3079082802D200F0C2FB01E000F0C4
:1042C00079FB2E48FFF7DCFD02E00120FFF72FFC11
:1042D000707810B9F0780828F7D07570F078072852
:1042E00004D045214046FFF7F9F904E04321F9E7FE
:1042F0000120FFF71CFC70780028F9D075707079E8
:10430000401C70711E48FFF7BBFD00F06FFA04E01F
:104310000879A07501E00879E0753079401CC0B2D9
:104320003071F5700828AAD9A07DA071E07DE071F8
:1043300000F05CFCFFF7E4FBC4F8409000F0E8F903
:10434000206C401E2064F9D10E4E606A4FF0057754
:104350003044B84223D900F0DBF9FDF765F8A062DC
:104360003C20FFF7E4FBFDF75FF8E0623C200BE048
:104370000048004000200140140000200000A0423E
:104380000000F0420000E0BEFFF7D1FBD4E90A01D3
:10439000FBF7DAFE5946FBF72FFF6062D8E7FDF71F
:1043A00043F814E000F0B4F93C20FFF7C0FBFDF740
:1043B0003BF8A0623C20FFF7BAFBFDF735F8014659
:1043C000E062A06AFBF7C0FE5946FBF715FF60628A
:1043D0003044B842E6D8FFF793FB502147464046A9
:1043E000FFF77CF902E00A20FFF7A1FB60780028C4
:1043F000F9D04846FFF79BFB6570FFF72BFC00F0F8
:1044000045FAA07908280CD23A48FFF739FD00F0A8
:10441000EDF9A079C0F10800C0B2FFF709FB00F088
:104420000FFBDFF8D4804046FFF72AFD43213846D2
:10443000FFF754F902E00A20FFF779FB60780028C3
:10444000F9D02C4E65703046FFF71AFD00F0CEF91A
:10445000A079E179884204D9401AC0B2FFF7E8FA9E
:1044600003E0081AC0B2FFF71FFC00F0E9FA40466B
:10447000FFF706FD45213846FFF730F902E00A2034
:10448000FFF755FB60780028F9D065703046FFF7DC
:10449000F7FC00F0ABF9E079C0F10800C0B2FFF71B
:1044A00067FC00F0CBF9FFF7A7FB00F015FB01203C
:1044B00060725646050329463046FCF7B1FE60722D
:1044C00040B91420FFF73EFB29463046FCF7A8FE12
:1044D000607258B100F01CF9607A0028EBD14421D9
:1044E0003846FFF7FBF80020BDE8F09FFFF708FB18
:1044F000F5E700000000F0420000A04204480A2155
:104500000183282141832B2181834621C183704768
:104510001400002038B54FF4C0652846FDF73CF87C
:104520001E208DF8000001248DF8014002208DF836
:1045300002008DF803406846FCF7DEFF2846FDF7D1
:104540002BF81D208DF800008DF801408DF80240F9
:104550008DF803406846FCF7CFFF2846FDF71CF8AE
:1045600027208DF800008DF8014000208DF8020012
:104570008DF803406846FCF7BFFF38BD3EB5002408
:10458000009401940294FCF7B3FF4FF4964000F0BE
:10459000B9FBFDF7ADF9104DA874FDF7A9F9A874A2
:1045A0000EE06846FCF730FBE8746846FCF72CFB2D
:1045B000E87402A96846FDF7FBF9641C2875A4B2EB
:1045C0009DF8080008B90A2CEBD3FDF735F968759A
:1045D0009DF808003EBD0000140000203EB50024F8
:1045E000009401940294FCF783FF4FF4964000F08E
:1045F000DBFBFDF7AFF9FDF7ADF90BE06846FCF723
:1046000039FB6846FCF736FB02A96846FDF71EFA3F
:10461000641CA4B29DF8080008B90A2CEED3FDF77B
:1046200039F99DF808003EBD03460A48012B04D025
:10463000012911460CD0FEF7F9BA012902D0114622
:10464000FEF784BA044B012119701146FEF720BA17
:10465000FEF7BCBA000800405800002008B51C2036
:104660008DF8000000208DF8010001208DF8020077
:104670008DF803006846FCF73FFF08BD3EB50D46C8
:10468000044601210846FCF7D9FFADF8044000209C
:10469000ADF80050ADF80600ADF802004FF08044D0
:1046A00069462046FEF7F4FA01212046FDF7C2FBD9
:1046B000012211462046FDF709FD3EBD70B5124DA1
:1046C00002212846FCF7ACFD104C042160722846FC
:1046D000FCF7A6FDA072617A012902D029B102D0AF
:1046E00005E0012803D050B101E0012803D0BDE866
:1046F0007040FFF7B1BBBDE8704000F0DBBABDE829
:10470000704000F0EBBA00000020014014000020CF
:1047100070B5204D08212846FCF782FD1E4C291556
:10472000E0722846FCF77CFD2073E9142846FCF76C
:1047300077FD607310212846FCF772FDA073E17AC3
:10474000012903D059B1627B4AB10DE0227B012AD5
:10475000F9D1627B012AF6D1012812D010E0227B28
:10476000012A07D0012805D0012907D0617B012942
:1047700004D006E0BDE8704000F0B0BA217B21B162
:1047800018B1BDE87040FFF767BBBDE8704000F0AE
:1047900091BA0000002001401400002070B5114CB7
:1047A0000020114DE073FCF75BF880212846FCF7F0
:1047B00037FDE0730A20FFF7BAF9E07B0028F2D05A
:1047C000FCF74EF880212846FCF72AFDE0730A200A
:1047D000FFF7ADF9E07B0028F2D1BDE87040FFF7AC
:1047E0008FB90000140000200020014070B5114C6A
:1047F0000020114D2074FCF723F820212846FCF7F7
:104800000FFD20740A20FFF792F9207C0028F2D0D7
:10481000FCF716F820212846FCF702FD20740A2038
:10482000FFF785F9207C0028F2D1BDE87040FFF742
:1048300067B90000140000200020014070B5114C41
:104840000020114DA072FBF7FBFF02212846FCF768
:10485000E7FCA0720A20FFF76AF9A07A0028F2D0DC
:10486000FBF7EEFF02212846FCF7DAFCA0720A20D3
:10487000FFF75DF9A07A0028F2D1BDE87040FFF79C
:104880003FB90000140000200020014070B5114C19
:104890000020114DA072FBF7E3FF04212846FCF72E
:1048A000BFFCA0720A20FFF742F9A07A0028F2D0DC
:1048B000FBF7D6FF04212846FCF7B2FCA0720A20C1
:1048C000FFF735F9A07A0028F2D1BDE87040FFF774
:1048D00017B90000140000200020014070B50F4CF3
:1048E00000200F4D6072FBF7ABFF02212846FCF75A
:1048F00097FC60720A20FFF71AF9607A0028F2D05C
:10490000FBF79EFF02212846FCF78AFC60720A2012
:10491000FFF70DF9607A0028F2D170BD1400002075
:104920000020014070B5214D00204FF48064687272
:104930001F4EFBF785FF21463046FCF771FC68727D
:104940000A20FFF7F4F8687A0028F2D0FBF778FF26
:1049500021463046FCF764FC68720A20FFF7E7F84E
:10496000687A0028F2D10124FBF76AFF0221304661
:10497000FCF756FC68720A20FFF7D9F8687A00281D
:10498000F2D0FBF75DFF02213046FCF749FC68726C
:104990000A20FFF7CCF8687A0028F2D1641E14F0E0
:1049A000FF04EBD1BDE87040FFF7AAB81400002067
:1049B0000020014070B5204D0020204E6872FBF7AA
:1049C0003FFF10213046FCF72BFC68720A20FFF7EE
:1049D000AEF8687A0028F2D0FBF732FF102130469B
:1049E000FCF71EFC68720A20FFF7A1F8687A00281D
:1049F000F2D10124FBF734FF04213046FCF710FC10
:104A000068720A20FFF793F8687A0028F2D0FBF763
:104A100027FF04213046FCF703FC68720A20FFF7E9
:104A200086F8687A0028F2D1641E14F0FF04EBD1F6
:104A3000BDE87040FFF764B814000020002001407A
:104A400070B50F4C00200F4DA072FBF709FF042139
:104A50002846FCF7E5FBA0720A20FFF768F8A07A69
:104A60000028F2D0FBF7FCFE04212846FCF7D8FB17
:104A7000A0720A20FFF75BF8A07A0028F2D170BD7F
:104A8000140000200020014070B54FF48065104EE6
:104A9000104C09E0FBF7A4FE29463046FCF7C0FBAA
:104AA00020730A20FFF743F8207B0028F2D0FBF7A1
:104AB00097FE29463046FCF7B3FB20730A20FFF728
:104AC00036F8207B0028F2D1BDE87040FFF718B817
:104AD000002001401400002070B5104D104C09E07A
:104AE000FBF76EFE10212846FCF79AFBA0730A2004
:104AF000FFF71DF8A07B0028F2D0FBF761FE102124
:104B00002846FCF78DFBA0730A20FFF710F8A07B66
:104B10000028F2D1BDE87040FEF7F2BF002001404E
:104B20001400002070B52F4C00204FF480662073D5
:104B30002D4DFBF765FE31462846FCF771FB2073CF
:104B40000220FEF7F4FF207B0028F2D0FBF758FE8E
:104B500031462846FCF764FB20730220FEF7E7FF8E
:104B6000207B0028F2D1FEF7CBFF09E0FFF774F9B4
:104B700010212846FCF754FB20730220FEF7D7FFD4
:104B8000207B0028F2D0FFF767F910212846FCF7B8
:104B900047FB20730220FEF7CAFF207B0028F2D1DA
:104BA000FEF7AEFF09E031462846FCF739FB2073DB
:104BB000FBF746FE0220FEF7BAFF207B0028F2D06A
:104BC00031462846FCF72CFB2073FBF739FE022008
:104BD000FEF7ADFF207B0028F2D1BDE87040FEF764
:104BE0008FBF0000140000200020014070B52F4C42
:104BF00000204FF4806620732D4DFBF701FE3146F7
:104C00002846FCF70DFB20730220FEF790FF207B67
:104C10000028F2D0FBF7F4FD31462846FCF700FBF4
:104C200020730220FEF783FF207B0028F2D1FEF7DD
:104C300067FF09E0FFF710F910212846FCF7F0FAAA
:104C400020730220FEF773FF207B0028F2D0FFF7CD
:104C500003F910212846FCF7E3FA20730220FEF73F
:104C600066FF207B0028F2D1FEF74AFF09E03146BB
:104C70002846FCF7D5FA2073FBF7E2FD0220FEF789
:104C800056FF207B0028F2D031462846FCF7C8FAB0
:104C90002073FBF7D5FD0220FEF749FF207B00289B
:104CA000F2D1BDE87040FEF72BBF000014000020D9
:104CB00000200140074810B5028802210120FFF7BB
:104CC000B3FC054802210288BDE810400846FFF702
:104CD000ABBC00002C00002032000020074810B5BB
:104CE000028802210120FFF79FFC0548022102886B
:104CF000BDE810400846FFF797BC000032000020D6
:104D00002C000020F0B5044687B0012144F20400D5
:104D1000FCF7E8FC224E3046FEF722FA7015ADF89B
:104D2000100003258DF8125018201E4F8DF8130027
:104D300004A93846FCF7D0F83015ADF8100004206F
:104D40008DF8130004A93846FCF7C6F80020ADF82A
:104D50000400ADF80600ADF80800ADF80C000C201A
:104D6000ADF80A00009469463046FEF7B5FB2520F1
:104D70008DF8140001208DF815008DF816508DF86F
:104D8000170005A8FCF7B8FB012240F22551304678
:104D9000FEF722FB01213046FEF7A4F907B0F0BD73
:104DA00000380140000801402DE9F0418046012112
:104DB00086B04804FCF742FC01210420FCF792FC79
:104DC000234E3046FEF7CCF90424ADF810400325FD
:104DD0008DF8125018201F4F8DF8130004A9384683
:104DE000FCF77AF80820ADF810008DF8134004A9FC
:104DF0003846FCF771F80021ADF80810ADF8041042
:104E00000C20ADF80610ADF80C10ADF80A00CDF886
:104E1000008069463046FEF75FFB26208DF81400BF
:104E200001208DF815008DF816508DF8170005A893
:104E3000FCF762FB012240F225513046FEF7CCFA26
:104E400001213046FEF74EF906B0BDE8F0810000C2
:104E50000044004000080140074B10B59B780B70E0
:104E60000022064B03E09C5C8454521CD2B20C78A6
:104E70009442F8D810BD0000AA000020DC000020F9
:104E8000074B10B59B780B700022064B03E09C5C2F
:104E90008454521CD2B20C789442F8D810BD000051
:104EA000AA000020DC0000202DE9F0410D46064656
:104EB0000024084F0AE0315D3846FEF70FFC402120
:104EC0003846FEF7A7F90128F9D1641CAC42F2DBA1
:104ED000BDE8F081003801402DE9F0410D4606465D
:104EE0000024084F0AE0315D3846FEF7F7FB402109
:104EF0003846FEF78FF90128F9D1641CAC42F2DB89
:104F0000BDE8F08100440040020000000000000005
:104F1000000000000000000002000000000000008F
:104F20000000000000000000484F000800000020C2
:104F3000DC0000007437000824500008DC0000206A
:104F40002404000084370008020406080000000062
:104F5000010203040102030406070809000000001F
:104F60000000000000000000000000000000000041
:104F70000000000000000000000000000000000031
:104F80000000000000000000000000000000000021
:104F90000000000000000000000000000000000011
:104FA00000AABB0600000008013138AABB050000BA
:104FB00000011011AABB1000000005100200000043
:104FC0000000000000000100AABB060000000C0168
:104FD000000DAABB13000000061002000000000034
:104FE000000000000000000000AABB050000000453
:104FF00001050000000000000000000000000000AB
:1050000000000000000000000000000000000000A0
:1050100000000000000000000000704100000000DF
:04502000000000008C
:0400000508000101ED
:00000001FF
